{
    "_format": "hh-sol-artifact-1",
    "contractName": "QFCERC721",
    "sourceName": "contracts/ERC721.sol",
    "abi": [
        {
            "inputs": [
                {
                    "internalType": "string",
                    "name": "name",
                    "type": "string"
                },
                {
                    "internalType": "string",
                    "name": "symbol",
                    "type": "string"
                },
                {
                    "internalType": "uint256",
                    "name": "totalSupply",
                    "type": "uint256"
                }
            ],
            "stateMutability": "nonpayable",
            "type": "constructor"
        },
        {
            "inputs": [
                {
                    "internalType": "address",
                    "name": "sender",
                    "type": "address"
                },
                {
                    "internalType": "uint256",
                    "name": "tokenId",
                    "type": "uint256"
                },
                {
                    "internalType": "address",
                    "name": "owner",
                    "type": "address"
                }
            ],
            "name": "ERC721IncorrectOwner",
            "type": "error"
        },
        {
            "inputs": [
                {
                    "internalType": "address",
                    "name": "operator",
                    "type": "address"
                },
                {
                    "internalType": "uint256",
                    "name": "tokenId",
                    "type": "uint256"
                }
            ],
            "name": "ERC721InsufficientApproval",
            "type": "error"
        },
        {
            "inputs": [
                {
                    "internalType": "address",
                    "name": "approver",
                    "type": "address"
                }
            ],
            "name": "ERC721InvalidApprover",
            "type": "error"
        },
        {
            "inputs": [
                {
                    "internalType": "address",
                    "name": "operator",
                    "type": "address"
                }
            ],
            "name": "ERC721InvalidOperator",
            "type": "error"
        },
        {
            "inputs": [
                {
                    "internalType": "address",
                    "name": "owner",
                    "type": "address"
                }
            ],
            "name": "ERC721InvalidOwner",
            "type": "error"
        },
        {
            "inputs": [
                {
                    "internalType": "address",
                    "name": "receiver",
                    "type": "address"
                }
            ],
            "name": "ERC721InvalidReceiver",
            "type": "error"
        },
        {
            "inputs": [
                {
                    "internalType": "address",
                    "name": "sender",
                    "type": "address"
                }
            ],
            "name": "ERC721InvalidSender",
            "type": "error"
        },
        {
            "inputs": [
                {
                    "internalType": "uint256",
                    "name": "tokenId",
                    "type": "uint256"
                }
            ],
            "name": "ERC721NonexistentToken",
            "type": "error"
        },
        {
            "inputs": [
                {
                    "internalType": "address",
                    "name": "owner",
                    "type": "address"
                }
            ],
            "name": "OwnableInvalidOwner",
            "type": "error"
        },
        {
            "inputs": [
                {
                    "internalType": "address",
                    "name": "account",
                    "type": "address"
                }
            ],
            "name": "OwnableUnauthorizedAccount",
            "type": "error"
        },
        {
            "anonymous": false,
            "inputs": [
                {
                    "indexed": true,
                    "internalType": "address",
                    "name": "owner",
                    "type": "address"
                },
                {
                    "indexed": true,
                    "internalType": "address",
                    "name": "approved",
                    "type": "address"
                },
                {
                    "indexed": true,
                    "internalType": "uint256",
                    "name": "tokenId",
                    "type": "uint256"
                }
            ],
            "name": "Approval",
            "type": "event"
        },
        {
            "anonymous": false,
            "inputs": [
                {
                    "indexed": true,
                    "internalType": "address",
                    "name": "owner",
                    "type": "address"
                },
                {
                    "indexed": true,
                    "internalType": "address",
                    "name": "operator",
                    "type": "address"
                },
                {
                    "indexed": false,
                    "internalType": "bool",
                    "name": "approved",
                    "type": "bool"
                }
            ],
            "name": "ApprovalForAll",
            "type": "event"
        },
        {
            "anonymous": false,
            "inputs": [
                {
                    "indexed": false,
                    "internalType": "uint256",
                    "name": "_fromTokenId",
                    "type": "uint256"
                },
                {
                    "indexed": false,
                    "internalType": "uint256",
                    "name": "_toTokenId",
                    "type": "uint256"
                }
            ],
            "name": "BatchMetadataUpdate",
            "type": "event"
        },
        {
            "anonymous": false,
            "inputs": [
                {
                    "indexed": false,
                    "internalType": "uint256",
                    "name": "_tokenId",
                    "type": "uint256"
                }
            ],
            "name": "MetadataUpdate",
            "type": "event"
        },
        {
            "anonymous": false,
            "inputs": [
                {
                    "indexed": true,
                    "internalType": "address",
                    "name": "previousOwner",
                    "type": "address"
                },
                {
                    "indexed": true,
                    "internalType": "address",
                    "name": "newOwner",
                    "type": "address"
                }
            ],
            "name": "OwnershipTransferred",
            "type": "event"
        },
        {
            "anonymous": false,
            "inputs": [
                {
                    "indexed": true,
                    "internalType": "address",
                    "name": "from",
                    "type": "address"
                },
                {
                    "indexed": true,
                    "internalType": "address",
                    "name": "to",
                    "type": "address"
                },
                {
                    "indexed": true,
                    "internalType": "uint256",
                    "name": "tokenId",
                    "type": "uint256"
                }
            ],
            "name": "Transfer",
            "type": "event"
        },
        {
            "inputs": [
                {
                    "internalType": "string",
                    "name": "tokenURI",
                    "type": "string"
                }
            ],
            "name": "addTokenURI",
            "outputs": [],
            "stateMutability": "nonpayable",
            "type": "function"
        },
        {
            "inputs": [
                {
                    "internalType": "address",
                    "name": "to",
                    "type": "address"
                },
                {
                    "internalType": "uint256",
                    "name": "tokenId",
                    "type": "uint256"
                }
            ],
            "name": "approve",
            "outputs": [],
            "stateMutability": "nonpayable",
            "type": "function"
        },
        {
            "inputs": [
                {
                    "internalType": "address",
                    "name": "owner",
                    "type": "address"
                }
            ],
            "name": "balanceOf",
            "outputs": [
                {
                    "internalType": "uint256",
                    "name": "",
                    "type": "uint256"
                }
            ],
            "stateMutability": "view",
            "type": "function"
        },
        {
            "inputs": [
                {
                    "internalType": "uint256",
                    "name": "tokenId",
                    "type": "uint256"
                }
            ],
            "name": "burn",
            "outputs": [],
            "stateMutability": "nonpayable",
            "type": "function"
        },
        {
            "inputs": [
                {
                    "internalType": "uint256",
                    "name": "tokenId",
                    "type": "uint256"
                }
            ],
            "name": "getApproved",
            "outputs": [
                {
                    "internalType": "address",
                    "name": "",
                    "type": "address"
                }
            ],
            "stateMutability": "view",
            "type": "function"
        },
        {
            "inputs": [],
            "name": "getTotalTokenURIs",
            "outputs": [
                {
                    "internalType": "uint256",
                    "name": "",
                    "type": "uint256"
                }
            ],
            "stateMutability": "view",
            "type": "function"
        },
        {
            "inputs": [
                {
                    "internalType": "address",
                    "name": "owner",
                    "type": "address"
                },
                {
                    "internalType": "address",
                    "name": "operator",
                    "type": "address"
                }
            ],
            "name": "isApprovedForAll",
            "outputs": [
                {
                    "internalType": "bool",
                    "name": "",
                    "type": "bool"
                }
            ],
            "stateMutability": "view",
            "type": "function"
        },
        {
            "inputs": [],
            "name": "mint",
            "outputs": [
                {
                    "internalType": "uint256",
                    "name": "",
                    "type": "uint256"
                }
            ],
            "stateMutability": "payable",
            "type": "function"
        },
        {
            "inputs": [],
            "name": "mintPrice",
            "outputs": [
                {
                    "internalType": "uint256",
                    "name": "",
                    "type": "uint256"
                }
            ],
            "stateMutability": "view",
            "type": "function"
        },
        {
            "inputs": [],
            "name": "name",
            "outputs": [
                {
                    "internalType": "string",
                    "name": "",
                    "type": "string"
                }
            ],
            "stateMutability": "view",
            "type": "function"
        },
        {
            "inputs": [],
            "name": "owner",
            "outputs": [
                {
                    "internalType": "address",
                    "name": "",
                    "type": "address"
                }
            ],
            "stateMutability": "view",
            "type": "function"
        },
        {
            "inputs": [
                {
                    "internalType": "uint256",
                    "name": "tokenId",
                    "type": "uint256"
                }
            ],
            "name": "ownerOf",
            "outputs": [
                {
                    "internalType": "address",
                    "name": "",
                    "type": "address"
                }
            ],
            "stateMutability": "view",
            "type": "function"
        },
        {
            "inputs": [
                {
                    "internalType": "address",
                    "name": "_recipient",
                    "type": "address"
                },
                {
                    "internalType": "string",
                    "name": "_tokenURI",
                    "type": "string"
                }
            ],
            "name": "premint",
            "outputs": [
                {
                    "internalType": "uint256",
                    "name": "",
                    "type": "uint256"
                }
            ],
            "stateMutability": "payable",
            "type": "function"
        },
        {
            "inputs": [],
            "name": "renounceOwnership",
            "outputs": [],
            "stateMutability": "nonpayable",
            "type": "function"
        },
        {
            "inputs": [
                {
                    "internalType": "address",
                    "name": "from",
                    "type": "address"
                },
                {
                    "internalType": "address",
                    "name": "to",
                    "type": "address"
                },
                {
                    "internalType": "uint256",
                    "name": "tokenId",
                    "type": "uint256"
                }
            ],
            "name": "safeTransferFrom",
            "outputs": [],
            "stateMutability": "nonpayable",
            "type": "function"
        },
        {
            "inputs": [
                {
                    "internalType": "address",
                    "name": "from",
                    "type": "address"
                },
                {
                    "internalType": "address",
                    "name": "to",
                    "type": "address"
                },
                {
                    "internalType": "uint256",
                    "name": "tokenId",
                    "type": "uint256"
                },
                {
                    "internalType": "bytes",
                    "name": "data",
                    "type": "bytes"
                }
            ],
            "name": "safeTransferFrom",
            "outputs": [],
            "stateMutability": "nonpayable",
            "type": "function"
        },
        {
            "inputs": [
                {
                    "internalType": "address",
                    "name": "operator",
                    "type": "address"
                },
                {
                    "internalType": "bool",
                    "name": "approved",
                    "type": "bool"
                }
            ],
            "name": "setApprovalForAll",
            "outputs": [],
            "stateMutability": "nonpayable",
            "type": "function"
        },
        {
            "inputs": [],
            "name": "supply",
            "outputs": [
                {
                    "internalType": "uint256",
                    "name": "",
                    "type": "uint256"
                }
            ],
            "stateMutability": "view",
            "type": "function"
        },
        {
            "inputs": [
                {
                    "internalType": "bytes4",
                    "name": "interfaceId",
                    "type": "bytes4"
                }
            ],
            "name": "supportsInterface",
            "outputs": [
                {
                    "internalType": "bool",
                    "name": "",
                    "type": "bool"
                }
            ],
            "stateMutability": "view",
            "type": "function"
        },
        {
            "inputs": [],
            "name": "symbol",
            "outputs": [
                {
                    "internalType": "string",
                    "name": "",
                    "type": "string"
                }
            ],
            "stateMutability": "view",
            "type": "function"
        },
        {
            "inputs": [],
            "name": "tokenIds",
            "outputs": [
                {
                    "internalType": "uint256",
                    "name": "",
                    "type": "uint256"
                }
            ],
            "stateMutability": "view",
            "type": "function"
        },
        {
            "inputs": [
                {
                    "internalType": "uint256",
                    "name": "tokenId",
                    "type": "uint256"
                }
            ],
            "name": "tokenURI",
            "outputs": [
                {
                    "internalType": "string",
                    "name": "",
                    "type": "string"
                }
            ],
            "stateMutability": "view",
            "type": "function"
        },
        {
            "inputs": [
                {
                    "internalType": "address",
                    "name": "from",
                    "type": "address"
                },
                {
                    "internalType": "address",
                    "name": "to",
                    "type": "address"
                },
                {
                    "internalType": "uint256",
                    "name": "tokenId",
                    "type": "uint256"
                }
            ],
            "name": "transferFrom",
            "outputs": [],
            "stateMutability": "nonpayable",
            "type": "function"
        },
        {
            "inputs": [
                {
                    "internalType": "address",
                    "name": "newOwner",
                    "type": "address"
                }
            ],
            "name": "transferOwnership",
            "outputs": [],
            "stateMutability": "nonpayable",
            "type": "function"
        },
        {
            "inputs": [
                {
                    "internalType": "uint256",
                    "name": "_price",
                    "type": "uint256"
                }
            ],
            "name": "updateMintPrice",
            "outputs": [
                {
                    "internalType": "uint256",
                    "name": "",
                    "type": "uint256"
                }
            ],
            "stateMutability": "nonpayable",
            "type": "function"
        },
        {
            "inputs": [
                {
                    "internalType": "uint256",
                    "name": "_supply",
                    "type": "uint256"
                }
            ],
            "name": "updateSupply",
            "outputs": [
                {
                    "internalType": "uint256",
                    "name": "",
                    "type": "uint256"
                }
            ],
            "stateMutability": "nonpayable",
            "type": "function"
        },
        {
            "inputs": [],
            "name": "withdraw",
            "outputs": [
                {
                    "internalType": "bool",
                    "name": "",
                    "type": "bool"
                }
            ],
            "stateMutability": "payable",
            "type": "function"
        }
    ],
    "bytecode": "0x60806040526000600855670de0b6b3a764000060095562124f80600a553480156200002957600080fd5b50604051620021a9380380620021a98339810160408190526200004c91620001cd565b33838360006200005d8382620002cf565b5060016200006c8282620002cf565b5050506001600160a01b0381166200009e57604051631e4fbdf760e01b81526000600482015260240160405180910390fd5b620000a981620000b6565b50600a55506200039b9050565b600780546001600160a01b038381166001600160a01b0319831681179093556040519116919082907f8be0079c531659141344cd1fd0a4f28419497f9722a3daafe3b4186f6b6457e090600090a35050565b634e487b7160e01b600052604160045260246000fd5b600082601f8301126200013057600080fd5b81516001600160401b03808211156200014d576200014d62000108565b604051601f8301601f19908116603f0116810190828211818310171562000178576200017862000108565b816040528381526020925086838588010111156200019557600080fd5b600091505b83821015620001b957858201830151818301840152908201906200019a565b600093810190920192909252949350505050565b600080600060608486031215620001e357600080fd5b83516001600160401b0380821115620001fb57600080fd5b62000209878388016200011e565b945060208601519150808211156200022057600080fd5b506200022f868287016200011e565b925050604084015190509250925092565b600181811c908216806200025557607f821691505b6020821081036200027657634e487b7160e01b600052602260045260246000fd5b50919050565b601f821115620002ca57600081815260208120601f850160051c81016020861015620002a55750805b601f850160051c820191505b81811015620002c657828155600101620002b1565b5050505b505050565b81516001600160401b03811115620002eb57620002eb62000108565b6200030381620002fc845462000240565b846200027c565b602080601f8311600181146200033b5760008415620003225750858301515b600019600386901b1c1916600185901b178555620002c6565b600085815260208120601f198616915b828110156200036c578886015182559484019460019091019084016200034b565b50858210156200038b5787850151600019600388901b60f8161c191681555b5050505050600190811b01905550565b611dfe80620003ab6000396000f3fe6080604052600436106101ab5760003560e01c80636817c76c116100ec578063a22cb4651161008a578063e985e9c511610064578063e985e9c514610469578063f2fde38b146104b2578063f65ef741146104d2578063ff34be52146104e557600080fd5b8063a22cb46514610409578063b88d4fde14610429578063c87b56dd1461044957600080fd5b8063714cff56116100c6578063714cff56146103ab578063715018a6146103c15780638da5cb5b146103d657806395d89b41146103f457600080fd5b80636817c76c146103555780636bd080491461036b57806370a082311461038b57600080fd5b8063095ea7b3116101595780633ccfd60b116101335780633ccfd60b146102ed57806342842e0e146102f557806342966c68146103155780636352211e1461033557600080fd5b8063095ea7b3146102a55780631249c58b146102c557806323b872dd146102cd57600080fd5b8063047fc9aa1161018a578063047fc9aa1461023557806306fdde031461024b578063081812fc1461026d57600080fd5b8062728e46146101b057806301ffc9a7146101e357806302f3277014610213575b600080fd5b3480156101bc57600080fd5b506101d06101cb366004611846565b6104fa565b6040519081526020015b60405180910390f35b3480156101ef57600080fd5b506102036101fe366004611875565b610511565b60405190151581526020016101da565b34801561021f57600080fd5b5061023361022e36600461193e565b610555565b005b34801561024157600080fd5b506101d0600a5481565b34801561025757600080fd5b5061026061059d565b6040516101da91906119c3565b34801561027957600080fd5b5061028d610288366004611846565b61062f565b6040516001600160a01b0390911681526020016101da565b3480156102b157600080fd5b506102336102c03660046119ed565b610658565b6101d0610663565b3480156102d957600080fd5b506102336102e8366004611a17565b610879565b61020361091d565b34801561030157600080fd5b50610233610310366004611a17565b610a3d565b34801561032157600080fd5b50610233610330366004611846565b610a5d565b34801561034157600080fd5b5061028d610350366004611846565b610aef565b34801561036157600080fd5b506101d060095481565b34801561037757600080fd5b506101d0610386366004611846565b610afa565b34801561039757600080fd5b506101d06103a6366004611a53565b610b84565b3480156103b757600080fd5b506101d060085481565b3480156103cd57600080fd5b50610233610be5565b3480156103e257600080fd5b506007546001600160a01b031661028d565b34801561040057600080fd5b50610260610bf9565b34801561041557600080fd5b50610233610424366004611a6e565b610c08565b34801561043557600080fd5b50610233610444366004611aaa565b610c13565b34801561045557600080fd5b50610260610464366004611846565b610c2b565b34801561047557600080fd5b50610203610484366004611b26565b6001600160a01b03918216600090815260056020908152604080832093909416825291909152205460ff1690565b3480156104be57600080fd5b506102336104cd366004611a53565b610d3c565b6101d06104e0366004611b59565b610d90565b3480156104f157600080fd5b50600b546101d0565b6000610504610e5a565b506009819055805b919050565b60006001600160e01b031982167f4906490600000000000000000000000000000000000000000000000000000000148061054f575061054f82610ea0565b92915050565b61055d610e5a565b600b80546001810182556000919091527f0175b7a638427703f0dbe7bb9bbf987a2551717b34e79f33b5b1008d1fa01db9016105998282611c27565b5050565b6060600080546105ac90611ba7565b80601f01602080910402602001604051908101604052809291908181526020018280546105d890611ba7565b80156106255780601f106105fa57610100808354040283529160200191610625565b820191906000526020600020905b81548152906001019060200180831161060857829003601f168201915b5050505050905090565b600061063a82610f3b565b506000828152600460205260409020546001600160a01b031661054f565b610599828233610f74565b600b546000906106ba5760405162461bcd60e51b815260206004820152601760248201527f4e6f20746f6b656e205552497320617661696c61626c6500000000000000000060448201526064015b60405180910390fd5b600854600a5481106106fd5760405162461bcd60e51b815260206004820152600c60248201526b4e6f206d6f7265204e46547360a01b60448201526064016106b1565b600954341461074e5760405162461bcd60e51b815260206004820152601e60248201527f56616c7565206d75737420626520657175616c206d696e74207072696365000060448201526064016106b1565b600b5460408051426020808301919091523360601b6bffffffffffffffffffffffff191682840152825160348184030181526054909201909252805191012060009161079991611ce7565b90506000600b82815481106107b0576107b0611d09565b9060005260206000200180546107c590611ba7565b80601f01602080910402602001604051908101604052809291908181526020018280546107f190611ba7565b801561083e5780601f106108135761010080835404028352916020019161083e565b820191906000526020600020905b81548152906001019060200180831161082157829003601f168201915b5050505050905061084f3384610f81565b6108598382610f9b565b60016008600082825461086c9190611d1f565b9091555092949350505050565b6001600160a01b0382166108a357604051633250574960e11b8152600060048201526024016106b1565b60006108b0838333610feb565b9050836001600160a01b0316816001600160a01b031614610917576040517f64283d7b0000000000000000000000000000000000000000000000000000000081526001600160a01b03808616600483015260248201849052821660448201526064016106b1565b50505050565b6000610927610e5a565b6007546001600160a01b031633146109815760405162461bcd60e51b815260206004820152600c60248201527f556e617574686f72697a6564000000000000000000000000000000000000000060448201526064016106b1565b60006109956007546001600160a01b031690565b6001600160a01b03164760405160006040518083038185875af1925050503d80600081146109df576040519150601f19603f3d011682016040523d82523d6000602084013e6109e4565b606091505b5050905080610a355760405162461bcd60e51b815260206004820152601060248201527f5769746864726177206661696c65642e0000000000000000000000000000000060448201526064016106b1565b600191505090565b610a5883838360405180602001604052806000815250610c13565b505050565b33610a6782610aef565b6001600160a01b031614610ae35760405162461bcd60e51b815260206004820152602660248201527f4f6e6c7920746865206f776e6572206f6620746865204e46542063616e20627560448201527f726e2069742e000000000000000000000000000000000000000000000000000060648201526084016106b1565b610aec816110f1565b50565b600061054f82610f3b565b6000610b04610e5a565b6008548211610b7b5760405162461bcd60e51b815260206004820152603660248201527f4e657720737570706c79206d7573742062652067726561746572207468616e2060448201527f63757272656e74206d696e74656420737570706c792e0000000000000000000060648201526084016106b1565b50600a81905590565b60006001600160a01b038216610bc9576040517f89c62b64000000000000000000000000000000000000000000000000000000008152600060048201526024016106b1565b506001600160a01b031660009081526003602052604090205490565b610bed610e5a565b610bf7600061112c565b565b6060600180546105ac90611ba7565b61059933838361118b565b610c1e848484610879565b6109173385858585611243565b6060610c3682610f3b565b5060008281526006602052604081208054610c5090611ba7565b80601f0160208091040260200160405190810160405280929190818152602001828054610c7c90611ba7565b8015610cc95780601f10610c9e57610100808354040283529160200191610cc9565b820191906000526020600020905b815481529060010190602001808311610cac57829003601f168201915b505050505090506000610ce760408051602081019091526000815290565b90508051600003610cf9575092915050565b815115610d2b578082604051602001610d13929190611d40565b60405160208183030381529060405292505050919050565b610d348461136e565b949350505050565b610d44610e5a565b6001600160a01b038116610d87576040517f1e4fbdf7000000000000000000000000000000000000000000000000000000008152600060048201526024016106b1565b610aec8161112c565b60006009543414610de35760405162461bcd60e51b815260206004820152600e60248201527f35205155414920746f204d696e7400000000000000000000000000000000000060448201526064016106b1565b600854600a548110610e265760405162461bcd60e51b815260206004820152600c60248201526b4e6f206d6f7265204e46547360a01b60448201526064016106b1565b610e3084826113e3565b610e3a8184610f9b565b600160086000828254610e4d9190611d1f565b9091555090949350505050565b6007546001600160a01b03163314610bf7576040517f118cdaa70000000000000000000000000000000000000000000000000000000081523360048201526024016106b1565b60006001600160e01b031982167f80ac58cd000000000000000000000000000000000000000000000000000000001480610f0357506001600160e01b031982167f5b5e139f00000000000000000000000000000000000000000000000000000000145b8061054f57507f01ffc9a7000000000000000000000000000000000000000000000000000000006001600160e01b031983161461054f565b6000818152600260205260408120546001600160a01b03168061054f57604051637e27328960e01b8152600481018490526024016106b1565b610a588383836001611461565b6105998282604051806020016040528060008152506115ac565b6000828152600660205260409020610fb38282611c27565b506040518281527ff8e1a15aba9398e019f0b49df1a4fde98ee17ae345cb5f6b5e2c27f5033e8ce79060200160405180910390a15050565b6000828152600260205260408120546001600160a01b0390811690831615611018576110188184866115c4565b6001600160a01b0381161561105657611035600085600080611461565b6001600160a01b038116600090815260036020526040902080546000190190555b6001600160a01b03851615611085576001600160a01b0385166000908152600360205260409020805460010190555b600084815260026020526040808220805473ffffffffffffffffffffffffffffffffffffffff19166001600160a01b0389811691821790925591518793918516917fddf252ad1be2c89b69c2b068fc378daa952ba7f163c4a11628f55a4df523b3ef91a4949350505050565b60006111006000836000610feb565b90506001600160a01b03811661059957604051637e27328960e01b8152600481018390526024016106b1565b600780546001600160a01b0383811673ffffffffffffffffffffffffffffffffffffffff19831681179093556040519116919082907f8be0079c531659141344cd1fd0a4f28419497f9722a3daafe3b4186f6b6457e090600090a35050565b6001600160a01b0382166111d6576040517f5b08ba180000000000000000000000000000000000000000000000000000000081526001600160a01b03831660048201526024016106b1565b6001600160a01b03838116600081815260056020908152604080832094871680845294825291829020805460ff191686151590811790915591519182527f17307eab39ab6107e8899845ad3d59bd9653f200f220920489ca2b5937696c31910160405180910390a3505050565b6001600160a01b0383163b1561136757604051630a85bd0160e11b81526001600160a01b0384169063150b7a0290611285908890889087908790600401611d6f565b6020604051808303816000875af19250505080156112c0575060408051601f3d908101601f191682019092526112bd91810190611dab565b60015b611329573d8080156112ee576040519150601f19603f3d011682016040523d82523d6000602084013e6112f3565b606091505b50805160000361132157604051633250574960e11b81526001600160a01b03851660048201526024016106b1565b805181602001fd5b6001600160e01b03198116630a85bd0160e11b1461136557604051633250574960e11b81526001600160a01b03851660048201526024016106b1565b505b5050505050565b606061137982610f3b565b50600061139160408051602081019091526000815290565b905060008151116113b157604051806020016040528060008152506113dc565b806113bb84611641565b6040516020016113cc929190611d40565b6040516020818303038152906040525b9392505050565b6001600160a01b03821661140d57604051633250574960e11b8152600060048201526024016106b1565b600061141b83836000610feb565b90506001600160a01b03811615610a58576040517f73c6ac6e000000000000000000000000000000000000000000000000000000008152600060048201526024016106b1565b808061147557506001600160a01b03821615155b1561156f57600061148584610f3b565b90506001600160a01b038316158015906114b15750826001600160a01b0316816001600160a01b031614155b80156114e357506001600160a01b0380821660009081526005602090815260408083209387168352929052205460ff16155b15611525576040517fa9fbf51f0000000000000000000000000000000000000000000000000000000081526001600160a01b03841660048201526024016106b1565b811561156d5783856001600160a01b0316826001600160a01b03167f8c5be1e5ebec7d5bd14f71427d1e84f3dd0314c0f7b2291e5b200ac8c7c3b92560405160405180910390a45b505b50506000908152600460205260409020805473ffffffffffffffffffffffffffffffffffffffff19166001600160a01b0392909216919091179055565b6115b683836113e3565b610a58336000858585611243565b6115cf8383836116e1565b610a58576001600160a01b0383166115fd57604051637e27328960e01b8152600481018290526024016106b1565b6040517f177e802f0000000000000000000000000000000000000000000000000000000081526001600160a01b0383166004820152602481018290526044016106b1565b6060600061164e83611764565b600101905060008167ffffffffffffffff81111561166e5761166e611892565b6040519080825280601f01601f191660200182016040528015611698576020820181803683370190505b5090508181016020015b600019017f3031323334353637383961626364656600000000000000000000000000000000600a86061a8153600a85049450846116a257509392505050565b60006001600160a01b03831615801590610d345750826001600160a01b0316846001600160a01b0316148061173b57506001600160a01b0380851660009081526005602090815260408083209387168352929052205460ff165b80610d345750506000908152600460205260409020546001600160a01b03908116911614919050565b6000807a184f03e93ff9f4daa797ed6e38ed64bf6a1f01000000000000000083106117ad577a184f03e93ff9f4daa797ed6e38ed64bf6a1f010000000000000000830492506040015b6d04ee2d6d415b85acef810000000083106117d9576d04ee2d6d415b85acef8100000000830492506020015b662386f26fc1000083106117f757662386f26fc10000830492506010015b6305f5e100831061180f576305f5e100830492506008015b612710831061182357612710830492506004015b60648310611835576064830492506002015b600a831061054f5760010192915050565b60006020828403121561185857600080fd5b5035919050565b6001600160e01b031981168114610aec57600080fd5b60006020828403121561188757600080fd5b81356113dc8161185f565b634e487b7160e01b600052604160045260246000fd5b600067ffffffffffffffff808411156118c3576118c3611892565b604051601f8501601f19908116603f011681019082821181831017156118eb576118eb611892565b8160405280935085815286868601111561190457600080fd5b858560208301376000602087830101525050509392505050565b600082601f83011261192f57600080fd5b6113dc838335602085016118a8565b60006020828403121561195057600080fd5b813567ffffffffffffffff81111561196757600080fd5b610d348482850161191e565b60005b8381101561198e578181015183820152602001611976565b50506000910152565b600081518084526119af816020860160208601611973565b601f01601f19169290920160200192915050565b6020815260006113dc6020830184611997565b80356001600160a01b038116811461050c57600080fd5b60008060408385031215611a0057600080fd5b611a09836119d6565b946020939093013593505050565b600080600060608486031215611a2c57600080fd5b611a35846119d6565b9250611a43602085016119d6565b9150604084013590509250925092565b600060208284031215611a6557600080fd5b6113dc826119d6565b60008060408385031215611a8157600080fd5b611a8a836119d6565b915060208301358015158114611a9f57600080fd5b809150509250929050565b60008060008060808587031215611ac057600080fd5b611ac9856119d6565b9350611ad7602086016119d6565b925060408501359150606085013567ffffffffffffffff811115611afa57600080fd5b8501601f81018713611b0b57600080fd5b611b1a878235602084016118a8565b91505092959194509250565b60008060408385031215611b3957600080fd5b611b42836119d6565b9150611b50602084016119d6565b90509250929050565b60008060408385031215611b6c57600080fd5b611b75836119d6565b9150602083013567ffffffffffffffff811115611b9157600080fd5b611b9d8582860161191e565b9150509250929050565b600181811c90821680611bbb57607f821691505b602082108103611bdb57634e487b7160e01b600052602260045260246000fd5b50919050565b601f821115610a5857600081815260208120601f850160051c81016020861015611c085750805b601f850160051c820191505b8181101561136557828155600101611c14565b815167ffffffffffffffff811115611c4157611c41611892565b611c5581611c4f8454611ba7565b84611be1565b602080601f831160018114611c8a5760008415611c725750858301515b600019600386901b1c1916600185901b178555611365565b600085815260208120601f198616915b82811015611cb957888601518255948401946001909101908401611c9a565b5085821015611cd75787850151600019600388901b60f8161c191681555b5050505050600190811b01905550565b600082611d0457634e487b7160e01b600052601260045260246000fd5b500690565b634e487b7160e01b600052603260045260246000fd5b8082018082111561054f57634e487b7160e01b600052601160045260246000fd5b60008351611d52818460208801611973565b835190830190611d66818360208801611973565b01949350505050565b60006001600160a01b03808716835280861660208401525083604083015260806060830152611da16080830184611997565b9695505050505050565b600060208284031215611dbd57600080fd5b81516113dc8161185f56fea2646970667358221220b1154b58f9b03d3d85016f0338a365c0ac00730456ec69d7c48bbf237164510364736f6c63430008140033",
    "linkReferences": {},
    "deployedLinkReferences": {}
}