{
  "_format": "hh-sol-artifact-1",
  "contractName": "QFANGoldenAge",
  "sourceName": "contracts/QFANGoldenAge.sol",
  "abi": [
    {
      "inputs": [
        {
          "internalType": "string",
          "name": "name",
          "type": "string"
        },
        {
          "internalType": "string",
          "name": "symbol",
          "type": "string"
        }
      ],
      "stateMutability": "nonpayable",
      "type": "constructor"
    },
    {
      "inputs": [
        {
          "internalType": "address",
          "name": "sender",
          "type": "address"
        },
        {
          "internalType": "uint256",
          "name": "tokenId",
          "type": "uint256"
        },
        {
          "internalType": "address",
          "name": "owner",
          "type": "address"
        }
      ],
      "name": "ERC721IncorrectOwner",
      "type": "error"
    },
    {
      "inputs": [
        {
          "internalType": "address",
          "name": "operator",
          "type": "address"
        },
        {
          "internalType": "uint256",
          "name": "tokenId",
          "type": "uint256"
        }
      ],
      "name": "ERC721InsufficientApproval",
      "type": "error"
    },
    {
      "inputs": [
        {
          "internalType": "address",
          "name": "approver",
          "type": "address"
        }
      ],
      "name": "ERC721InvalidApprover",
      "type": "error"
    },
    {
      "inputs": [
        {
          "internalType": "address",
          "name": "operator",
          "type": "address"
        }
      ],
      "name": "ERC721InvalidOperator",
      "type": "error"
    },
    {
      "inputs": [
        {
          "internalType": "address",
          "name": "owner",
          "type": "address"
        }
      ],
      "name": "ERC721InvalidOwner",
      "type": "error"
    },
    {
      "inputs": [
        {
          "internalType": "address",
          "name": "receiver",
          "type": "address"
        }
      ],
      "name": "ERC721InvalidReceiver",
      "type": "error"
    },
    {
      "inputs": [
        {
          "internalType": "address",
          "name": "sender",
          "type": "address"
        }
      ],
      "name": "ERC721InvalidSender",
      "type": "error"
    },
    {
      "inputs": [
        {
          "internalType": "uint256",
          "name": "tokenId",
          "type": "uint256"
        }
      ],
      "name": "ERC721NonexistentToken",
      "type": "error"
    },
    {
      "inputs": [
        {
          "internalType": "address",
          "name": "owner",
          "type": "address"
        }
      ],
      "name": "OwnableInvalidOwner",
      "type": "error"
    },
    {
      "inputs": [
        {
          "internalType": "address",
          "name": "account",
          "type": "address"
        }
      ],
      "name": "OwnableUnauthorizedAccount",
      "type": "error"
    },
    {
      "anonymous": false,
      "inputs": [
        {
          "indexed": true,
          "internalType": "address",
          "name": "owner",
          "type": "address"
        },
        {
          "indexed": true,
          "internalType": "address",
          "name": "approved",
          "type": "address"
        },
        {
          "indexed": true,
          "internalType": "uint256",
          "name": "tokenId",
          "type": "uint256"
        }
      ],
      "name": "Approval",
      "type": "event"
    },
    {
      "anonymous": false,
      "inputs": [
        {
          "indexed": true,
          "internalType": "address",
          "name": "owner",
          "type": "address"
        },
        {
          "indexed": true,
          "internalType": "address",
          "name": "operator",
          "type": "address"
        },
        {
          "indexed": false,
          "internalType": "bool",
          "name": "approved",
          "type": "bool"
        }
      ],
      "name": "ApprovalForAll",
      "type": "event"
    },
    {
      "anonymous": false,
      "inputs": [
        {
          "indexed": false,
          "internalType": "uint256",
          "name": "_fromTokenId",
          "type": "uint256"
        },
        {
          "indexed": false,
          "internalType": "uint256",
          "name": "_toTokenId",
          "type": "uint256"
        }
      ],
      "name": "BatchMetadataUpdate",
      "type": "event"
    },
    {
      "anonymous": false,
      "inputs": [
        {
          "indexed": false,
          "internalType": "uint256",
          "name": "_tokenId",
          "type": "uint256"
        }
      ],
      "name": "MetadataUpdate",
      "type": "event"
    },
    {
      "anonymous": false,
      "inputs": [
        {
          "indexed": true,
          "internalType": "address",
          "name": "previousOwner",
          "type": "address"
        },
        {
          "indexed": true,
          "internalType": "address",
          "name": "newOwner",
          "type": "address"
        }
      ],
      "name": "OwnershipTransferred",
      "type": "event"
    },
    {
      "anonymous": false,
      "inputs": [
        {
          "indexed": true,
          "internalType": "address",
          "name": "from",
          "type": "address"
        },
        {
          "indexed": true,
          "internalType": "address",
          "name": "to",
          "type": "address"
        },
        {
          "indexed": true,
          "internalType": "uint256",
          "name": "tokenId",
          "type": "uint256"
        }
      ],
      "name": "Transfer",
      "type": "event"
    },
    {
      "inputs": [
        {
          "internalType": "address",
          "name": "to",
          "type": "address"
        },
        {
          "internalType": "uint256",
          "name": "tokenId",
          "type": "uint256"
        }
      ],
      "name": "approve",
      "outputs": [],
      "stateMutability": "nonpayable",
      "type": "function"
    },
    {
      "inputs": [
        {
          "internalType": "address",
          "name": "owner",
          "type": "address"
        }
      ],
      "name": "balanceOf",
      "outputs": [
        {
          "internalType": "uint256",
          "name": "",
          "type": "uint256"
        }
      ],
      "stateMutability": "view",
      "type": "function"
    },
    {
      "inputs": [
        {
          "internalType": "uint256",
          "name": "tokenId",
          "type": "uint256"
        }
      ],
      "name": "burn",
      "outputs": [],
      "stateMutability": "nonpayable",
      "type": "function"
    },
    {
      "inputs": [
        {
          "internalType": "uint256",
          "name": "tokenId",
          "type": "uint256"
        }
      ],
      "name": "getApproved",
      "outputs": [
        {
          "internalType": "address",
          "name": "",
          "type": "address"
        }
      ],
      "stateMutability": "view",
      "type": "function"
    },
    {
      "inputs": [
        {
          "internalType": "address",
          "name": "owner",
          "type": "address"
        },
        {
          "internalType": "address",
          "name": "operator",
          "type": "address"
        }
      ],
      "name": "isApprovedForAll",
      "outputs": [
        {
          "internalType": "bool",
          "name": "",
          "type": "bool"
        }
      ],
      "stateMutability": "view",
      "type": "function"
    },
    {
      "inputs": [
        {
          "internalType": "address",
          "name": "_recipient",
          "type": "address"
        }
      ],
      "name": "mint",
      "outputs": [
        {
          "internalType": "uint256",
          "name": "",
          "type": "uint256"
        }
      ],
      "stateMutability": "payable",
      "type": "function"
    },
    {
      "inputs": [],
      "name": "mintPrice",
      "outputs": [
        {
          "internalType": "uint256",
          "name": "",
          "type": "uint256"
        }
      ],
      "stateMutability": "view",
      "type": "function"
    },
    {
      "inputs": [],
      "name": "name",
      "outputs": [
        {
          "internalType": "string",
          "name": "",
          "type": "string"
        }
      ],
      "stateMutability": "view",
      "type": "function"
    },
    {
      "inputs": [],
      "name": "owner",
      "outputs": [
        {
          "internalType": "address",
          "name": "",
          "type": "address"
        }
      ],
      "stateMutability": "view",
      "type": "function"
    },
    {
      "inputs": [
        {
          "internalType": "uint256",
          "name": "tokenId",
          "type": "uint256"
        }
      ],
      "name": "ownerOf",
      "outputs": [
        {
          "internalType": "address",
          "name": "",
          "type": "address"
        }
      ],
      "stateMutability": "view",
      "type": "function"
    },
    {
      "inputs": [],
      "name": "renounceOwnership",
      "outputs": [],
      "stateMutability": "nonpayable",
      "type": "function"
    },
    {
      "inputs": [
        {
          "internalType": "address",
          "name": "from",
          "type": "address"
        },
        {
          "internalType": "address",
          "name": "to",
          "type": "address"
        },
        {
          "internalType": "uint256",
          "name": "tokenId",
          "type": "uint256"
        }
      ],
      "name": "safeTransferFrom",
      "outputs": [],
      "stateMutability": "nonpayable",
      "type": "function"
    },
    {
      "inputs": [
        {
          "internalType": "address",
          "name": "from",
          "type": "address"
        },
        {
          "internalType": "address",
          "name": "to",
          "type": "address"
        },
        {
          "internalType": "uint256",
          "name": "tokenId",
          "type": "uint256"
        },
        {
          "internalType": "bytes",
          "name": "data",
          "type": "bytes"
        }
      ],
      "name": "safeTransferFrom",
      "outputs": [],
      "stateMutability": "nonpayable",
      "type": "function"
    },
    {
      "inputs": [
        {
          "internalType": "address",
          "name": "operator",
          "type": "address"
        },
        {
          "internalType": "bool",
          "name": "approved",
          "type": "bool"
        }
      ],
      "name": "setApprovalForAll",
      "outputs": [],
      "stateMutability": "nonpayable",
      "type": "function"
    },
    {
      "inputs": [],
      "name": "supply",
      "outputs": [
        {
          "internalType": "uint256",
          "name": "",
          "type": "uint256"
        }
      ],
      "stateMutability": "view",
      "type": "function"
    },
    {
      "inputs": [
        {
          "internalType": "bytes4",
          "name": "interfaceId",
          "type": "bytes4"
        }
      ],
      "name": "supportsInterface",
      "outputs": [
        {
          "internalType": "bool",
          "name": "",
          "type": "bool"
        }
      ],
      "stateMutability": "view",
      "type": "function"
    },
    {
      "inputs": [],
      "name": "symbol",
      "outputs": [
        {
          "internalType": "string",
          "name": "",
          "type": "string"
        }
      ],
      "stateMutability": "view",
      "type": "function"
    },
    {
      "inputs": [],
      "name": "tokenIds",
      "outputs": [
        {
          "internalType": "uint256",
          "name": "",
          "type": "uint256"
        }
      ],
      "stateMutability": "view",
      "type": "function"
    },
    {
      "inputs": [
        {
          "internalType": "uint256",
          "name": "tokenId",
          "type": "uint256"
        }
      ],
      "name": "tokenURI",
      "outputs": [
        {
          "internalType": "string",
          "name": "",
          "type": "string"
        }
      ],
      "stateMutability": "view",
      "type": "function"
    },
    {
      "inputs": [
        {
          "internalType": "address",
          "name": "from",
          "type": "address"
        },
        {
          "internalType": "address",
          "name": "to",
          "type": "address"
        },
        {
          "internalType": "uint256",
          "name": "tokenId",
          "type": "uint256"
        }
      ],
      "name": "transferFrom",
      "outputs": [],
      "stateMutability": "nonpayable",
      "type": "function"
    },
    {
      "inputs": [
        {
          "internalType": "address",
          "name": "newOwner",
          "type": "address"
        }
      ],
      "name": "transferOwnership",
      "outputs": [],
      "stateMutability": "nonpayable",
      "type": "function"
    },
    {
      "inputs": [
        {
          "internalType": "uint256",
          "name": "_price",
          "type": "uint256"
        }
      ],
      "name": "updateMintPrice",
      "outputs": [
        {
          "internalType": "uint256",
          "name": "",
          "type": "uint256"
        }
      ],
      "stateMutability": "nonpayable",
      "type": "function"
    },
    {
      "inputs": [
        {
          "internalType": "uint256",
          "name": "_supply",
          "type": "uint256"
        }
      ],
      "name": "updateSupply",
      "outputs": [
        {
          "internalType": "uint256",
          "name": "",
          "type": "uint256"
        }
      ],
      "stateMutability": "nonpayable",
      "type": "function"
    },
    {
      "inputs": [],
      "name": "withdraw",
      "outputs": [
        {
          "internalType": "bool",
          "name": "",
          "type": "bool"
        }
      ],
      "stateMutability": "payable",
      "type": "function"
    }
  ],
  "bytecode": "0x600060085568056bc75e2d631000006009556107d0600a55610100604052605460808181529062001e8060a039600b906200003b9082620001c9565b503480156200004957600080fd5b5060405162001ed438038062001ed48339810160408190526200006c9162000344565b33828260006200007d8382620001c9565b5060016200008c8282620001c9565b5050506001600160a01b038116620000be57604051631e4fbdf760e01b81526000600482015260240160405180910390fd5b620000c981620000d2565b505050620003ae565b600780546001600160a01b038381166001600160a01b0319831681179093556040519116919082907f8be0079c531659141344cd1fd0a4f28419497f9722a3daafe3b4186f6b6457e090600090a35050565b634e487b7160e01b600052604160045260246000fd5b600181811c908216806200014f57607f821691505b6020821081036200017057634e487b7160e01b600052602260045260246000fd5b50919050565b601f821115620001c457600081815260208120601f850160051c810160208610156200019f5750805b601f850160051c820191505b81811015620001c057828155600101620001ab565b5050505b505050565b81516001600160401b03811115620001e557620001e562000124565b620001fd81620001f684546200013a565b8462000176565b602080601f8311600181146200023557600084156200021c5750858301515b600019600386901b1c1916600185901b178555620001c0565b600085815260208120601f198616915b82811015620002665788860151825594840194600190910190840162000245565b5085821015620002855787850151600019600388901b60f8161c191681555b5050505050600190811b01905550565b600082601f830112620002a757600080fd5b81516001600160401b0380821115620002c457620002c462000124565b604051601f8301601f19908116603f01168101908282118183101715620002ef57620002ef62000124565b816040528381526020925086838588010111156200030c57600080fd5b600091505b8382101562000330578582018301518183018401529082019062000311565b600093810190920192909252949350505050565b600080604083850312156200035857600080fd5b82516001600160401b03808211156200037057600080fd5b6200037e8683870162000295565b935060208501519150808211156200039557600080fd5b50620003a48582860162000295565b9150509250929050565b611ac280620003be6000396000f3fe60806040526004361061018a5760003560e01c80636a627842116100d657806395d89b411161007f578063c87b56dd11610059578063c87b56dd14610413578063e985e9c514610433578063f2fde38b1461047c57600080fd5b806395d89b41146103be578063a22cb465146103d3578063b88d4fde146103f357600080fd5b8063714cff56116100b0578063714cff5614610375578063715018a61461038b5780638da5cb5b146103a057600080fd5b80636a627842146103225780636bd080491461033557806370a082311461035557600080fd5b806323b872dd1161013857806342966c681161011257806342966c68146102cc5780636352211e146102ec5780636817c76c1461030c57600080fd5b806323b872dd146102845780633ccfd60b146102a457806342842e0e146102ac57600080fd5b806306fdde031161016957806306fdde0314610208578063081812fc1461022a578063095ea7b31461026257600080fd5b8062728e461461018f57806301ffc9a7146101c2578063047fc9aa146101f2575b600080fd5b34801561019b57600080fd5b506101af6101aa3660046115fb565b61049c565b6040519081526020015b60405180910390f35b3480156101ce57600080fd5b506101e26101dd36600461162a565b6104b3565b60405190151581526020016101b9565b3480156101fe57600080fd5b506101af600a5481565b34801561021457600080fd5b5061021d6104f7565b6040516101b99190611697565b34801561023657600080fd5b5061024a6102453660046115fb565b610589565b6040516001600160a01b0390911681526020016101b9565b34801561026e57600080fd5b5061028261027d3660046116c1565b6105b2565b005b34801561029057600080fd5b5061028261029f3660046116eb565b6105c1565b6101e261066a565b3480156102b857600080fd5b506102826102c73660046116eb565b61078a565b3480156102d857600080fd5b506102826102e73660046115fb565b6107aa565b3480156102f857600080fd5b5061024a6103073660046115fb565b61083c565b34801561031857600080fd5b506101af60095481565b6101af610330366004611727565b610847565b34801561034157600080fd5b506101af6103503660046115fb565b6109ab565b34801561036157600080fd5b506101af610370366004611727565b610a35565b34801561038157600080fd5b506101af60085481565b34801561039757600080fd5b50610282610a96565b3480156103ac57600080fd5b506007546001600160a01b031661024a565b3480156103ca57600080fd5b5061021d610aaa565b3480156103df57600080fd5b506102826103ee366004611742565b610ab9565b3480156103ff57600080fd5b5061028261040e366004611794565b610ac4565b34801561041f57600080fd5b5061021d61042e3660046115fb565b610adc565b34801561043f57600080fd5b506101e261044e366004611870565b6001600160a01b03918216600090815260056020908152604080832093909416825291909152205460ff1690565b34801561048857600080fd5b50610282610497366004611727565b610bed565b60006104a6610c41565b506009819055805b919050565b60006001600160e01b031982167f490649060000000000000000000000000000000000000000000000000000000014806104f157506104f182610c87565b92915050565b606060008054610506906118a3565b80601f0160208091040260200160405190810160405280929190818152602001828054610532906118a3565b801561057f5780601f106105545761010080835404028352916020019161057f565b820191906000526020600020905b81548152906001019060200180831161056257829003601f168201915b5050505050905090565b600061059482610d22565b506000828152600460205260409020546001600160a01b03166104f1565b6105bd828233610d5b565b5050565b6001600160a01b0382166105f057604051633250574960e11b8152600060048201526024015b60405180910390fd5b60006105fd838333610d68565b9050836001600160a01b0316816001600160a01b031614610664576040517f64283d7b0000000000000000000000000000000000000000000000000000000081526001600160a01b03808616600483015260248201849052821660448201526064016105e7565b50505050565b6000610674610c41565b6007546001600160a01b031633146106ce5760405162461bcd60e51b815260206004820152600c60248201527f556e617574686f72697a6564000000000000000000000000000000000000000060448201526064016105e7565b60006106e26007546001600160a01b031690565b6001600160a01b03164760405160006040518083038185875af1925050503d806000811461072c576040519150601f19603f3d011682016040523d82523d6000602084013e610731565b606091505b50509050806107825760405162461bcd60e51b815260206004820152601060248201527f5769746864726177206661696c65642e0000000000000000000000000000000060448201526064016105e7565b600191505090565b6107a583838360405180602001604052806000815250610ac4565b505050565b336107b48261083c565b6001600160a01b0316146108305760405162461bcd60e51b815260206004820152602660248201527f4f6e6c7920746865206f776e6572206f6620746865204e46542063616e20627560448201527f726e2069742e000000000000000000000000000000000000000000000000000060648201526084016105e7565b61083981610e6e565b50565b60006104f182610d22565b6000600954341461089a5760405162461bcd60e51b815260206004820152601060248201527f313030205155414920746f204d696e740000000000000000000000000000000060448201526064016105e7565b600854600a5481106108ee5760405162461bcd60e51b815260206004820152600c60248201527f4e6f206d6f7265204e465473000000000000000000000000000000000000000060448201526064016105e7565b6108f88382610ea9565b61098c81600b8054610909906118a3565b80601f0160208091040260200160405190810160405280929190818152602001828054610935906118a3565b80156109825780601f1061095757610100808354040283529160200191610982565b820191906000526020600020905b81548152906001019060200180831161096557829003601f168201915b5050505050610f27565b60016008600082825461099f91906118dd565b90915550909392505050565b60006109b5610c41565b6008548211610a2c5760405162461bcd60e51b815260206004820152603660248201527f4e657720737570706c79206d7573742062652067726561746572207468616e2060448201527f63757272656e74206d696e74656420737570706c792e0000000000000000000060648201526084016105e7565b50600a81905590565b60006001600160a01b038216610a7a576040517f89c62b64000000000000000000000000000000000000000000000000000000008152600060048201526024016105e7565b506001600160a01b031660009081526003602052604090205490565b610a9e610c41565b610aa86000610f77565b565b606060018054610506906118a3565b6105bd338383610fd6565b610acf8484846105c1565b610664338585858561108e565b6060610ae782610d22565b5060008281526006602052604081208054610b01906118a3565b80601f0160208091040260200160405190810160405280929190818152602001828054610b2d906118a3565b8015610b7a5780601f10610b4f57610100808354040283529160200191610b7a565b820191906000526020600020905b815481529060010190602001808311610b5d57829003601f168201915b505050505090506000610b9860408051602081019091526000815290565b90508051600003610baa575092915050565b815115610bdc578082604051602001610bc49291906118fe565b60405160208183030381529060405292505050919050565b610be5846111b9565b949350505050565b610bf5610c41565b6001600160a01b038116610c38576040517f1e4fbdf7000000000000000000000000000000000000000000000000000000008152600060048201526024016105e7565b61083981610f77565b6007546001600160a01b03163314610aa8576040517f118cdaa70000000000000000000000000000000000000000000000000000000081523360048201526024016105e7565b60006001600160e01b031982167f80ac58cd000000000000000000000000000000000000000000000000000000001480610cea57506001600160e01b031982167f5b5e139f00000000000000000000000000000000000000000000000000000000145b806104f157507f01ffc9a7000000000000000000000000000000000000000000000000000000006001600160e01b03198316146104f1565b6000818152600260205260408120546001600160a01b0316806104f157604051637e27328960e01b8152600481018490526024016105e7565b6107a5838383600161122e565b6000828152600260205260408120546001600160a01b0390811690831615610d9557610d95818486611379565b6001600160a01b03811615610dd357610db260008560008061122e565b6001600160a01b038116600090815260036020526040902080546000190190555b6001600160a01b03851615610e02576001600160a01b0385166000908152600360205260409020805460010190555b600084815260026020526040808220805473ffffffffffffffffffffffffffffffffffffffff19166001600160a01b0389811691821790925591518793918516917fddf252ad1be2c89b69c2b068fc378daa952ba7f163c4a11628f55a4df523b3ef91a4949350505050565b6000610e7d6000836000610d68565b90506001600160a01b0381166105bd57604051637e27328960e01b8152600481018390526024016105e7565b6001600160a01b038216610ed357604051633250574960e11b8152600060048201526024016105e7565b6000610ee183836000610d68565b90506001600160a01b038116156107a5576040517f73c6ac6e000000000000000000000000000000000000000000000000000000008152600060048201526024016105e7565b6000828152600660205260409020610f3f8282611973565b506040518281527ff8e1a15aba9398e019f0b49df1a4fde98ee17ae345cb5f6b5e2c27f5033e8ce79060200160405180910390a15050565b600780546001600160a01b0383811673ffffffffffffffffffffffffffffffffffffffff19831681179093556040519116919082907f8be0079c531659141344cd1fd0a4f28419497f9722a3daafe3b4186f6b6457e090600090a35050565b6001600160a01b038216611021576040517f5b08ba180000000000000000000000000000000000000000000000000000000081526001600160a01b03831660048201526024016105e7565b6001600160a01b03838116600081815260056020908152604080832094871680845294825291829020805460ff191686151590811790915591519182527f17307eab39ab6107e8899845ad3d59bd9653f200f220920489ca2b5937696c31910160405180910390a3505050565b6001600160a01b0383163b156111b257604051630a85bd0160e11b81526001600160a01b0384169063150b7a02906110d0908890889087908790600401611a33565b6020604051808303816000875af192505050801561110b575060408051601f3d908101601f1916820190925261110891810190611a6f565b60015b611174573d808015611139576040519150601f19603f3d011682016040523d82523d6000602084013e61113e565b606091505b50805160000361116c57604051633250574960e11b81526001600160a01b03851660048201526024016105e7565b805181602001fd5b6001600160e01b03198116630a85bd0160e11b146111b057604051633250574960e11b81526001600160a01b03851660048201526024016105e7565b505b5050505050565b60606111c482610d22565b5060006111dc60408051602081019091526000815290565b905060008151116111fc5760405180602001604052806000815250611227565b80611206846113f6565b6040516020016112179291906118fe565b6040516020818303038152906040525b9392505050565b808061124257506001600160a01b03821615155b1561133c57600061125284610d22565b90506001600160a01b0383161580159061127e5750826001600160a01b0316816001600160a01b031614155b80156112b057506001600160a01b0380821660009081526005602090815260408083209387168352929052205460ff16155b156112f2576040517fa9fbf51f0000000000000000000000000000000000000000000000000000000081526001600160a01b03841660048201526024016105e7565b811561133a5783856001600160a01b0316826001600160a01b03167f8c5be1e5ebec7d5bd14f71427d1e84f3dd0314c0f7b2291e5b200ac8c7c3b92560405160405180910390a45b505b50506000908152600460205260409020805473ffffffffffffffffffffffffffffffffffffffff19166001600160a01b0392909216919091179055565b611384838383611496565b6107a5576001600160a01b0383166113b257604051637e27328960e01b8152600481018290526024016105e7565b6040517f177e802f0000000000000000000000000000000000000000000000000000000081526001600160a01b0383166004820152602481018290526044016105e7565b6060600061140383611519565b600101905060008167ffffffffffffffff8111156114235761142361177e565b6040519080825280601f01601f19166020018201604052801561144d576020820181803683370190505b5090508181016020015b600019017f3031323334353637383961626364656600000000000000000000000000000000600a86061a8153600a850494508461145757509392505050565b60006001600160a01b03831615801590610be55750826001600160a01b0316846001600160a01b031614806114f057506001600160a01b0380851660009081526005602090815260408083209387168352929052205460ff165b80610be55750506000908152600460205260409020546001600160a01b03908116911614919050565b6000807a184f03e93ff9f4daa797ed6e38ed64bf6a1f0100000000000000008310611562577a184f03e93ff9f4daa797ed6e38ed64bf6a1f010000000000000000830492506040015b6d04ee2d6d415b85acef8100000000831061158e576d04ee2d6d415b85acef8100000000830492506020015b662386f26fc1000083106115ac57662386f26fc10000830492506010015b6305f5e10083106115c4576305f5e100830492506008015b61271083106115d857612710830492506004015b606483106115ea576064830492506002015b600a83106104f15760010192915050565b60006020828403121561160d57600080fd5b5035919050565b6001600160e01b03198116811461083957600080fd5b60006020828403121561163c57600080fd5b813561122781611614565b60005b8381101561166257818101518382015260200161164a565b50506000910152565b60008151808452611683816020860160208601611647565b601f01601f19169290920160200192915050565b602081526000611227602083018461166b565b80356001600160a01b03811681146104ae57600080fd5b600080604083850312156116d457600080fd5b6116dd836116aa565b946020939093013593505050565b60008060006060848603121561170057600080fd5b611709846116aa565b9250611717602085016116aa565b9150604084013590509250925092565b60006020828403121561173957600080fd5b611227826116aa565b6000806040838503121561175557600080fd5b61175e836116aa565b91506020830135801515811461177357600080fd5b809150509250929050565b634e487b7160e01b600052604160045260246000fd5b600080600080608085870312156117aa57600080fd5b6117b3856116aa565b93506117c1602086016116aa565b925060408501359150606085013567ffffffffffffffff808211156117e557600080fd5b818701915087601f8301126117f957600080fd5b81358181111561180b5761180b61177e565b604051601f8201601f19908116603f011681019083821181831017156118335761183361177e565b816040528281528a602084870101111561184c57600080fd5b82602086016020830137600060208483010152809550505050505092959194509250565b6000806040838503121561188357600080fd5b61188c836116aa565b915061189a602084016116aa565b90509250929050565b600181811c908216806118b757607f821691505b6020821081036118d757634e487b7160e01b600052602260045260246000fd5b50919050565b808201808211156104f157634e487b7160e01b600052601160045260246000fd5b60008351611910818460208801611647565b835190830190611924818360208801611647565b01949350505050565b601f8211156107a557600081815260208120601f850160051c810160208610156119545750805b601f850160051c820191505b818110156111b057828155600101611960565b815167ffffffffffffffff81111561198d5761198d61177e565b6119a18161199b84546118a3565b8461192d565b602080601f8311600181146119d657600084156119be5750858301515b600019600386901b1c1916600185901b1785556111b0565b600085815260208120601f198616915b82811015611a05578886015182559484019460019091019084016119e6565b5085821015611a235787850151600019600388901b60f8161c191681555b5050505050600190811b01905550565b60006001600160a01b03808716835280861660208401525083604083015260806060830152611a65608083018461166b565b9695505050505050565b600060208284031215611a8157600080fd5b81516112278161161456fea2646970667358221220157b82ae68146ed878579a1b02af3ccc7d415836a5db11d9d11ce11bb0cf73d164736f6c6343000814003368747470733a2f2f6170692d676174657761792e7166616e2e78797a2f6e6574776f726b2f6170692f6173736574732f30303730353631302d616164312d343436662d623332622d633231616336333463346235",
  "linkReferences": {},
  "deployedLinkReferences": {}
}