{
  "_format": "hh-sol-artifact-1",
  "contractName": "QFANGoldenAge",
  "sourceName": "contracts/QFANGoldenAge.sol",
  "abi": [
    {
      "inputs": [
        {
          "internalType": "string",
          "name": "name",
          "type": "string"
        },
        {
          "internalType": "string",
          "name": "symbol",
          "type": "string"
        }
      ],
      "stateMutability": "nonpayable",
      "type": "constructor"
    },
    {
      "inputs": [
        {
          "internalType": "address",
          "name": "sender",
          "type": "address"
        },
        {
          "internalType": "uint256",
          "name": "tokenId",
          "type": "uint256"
        },
        {
          "internalType": "address",
          "name": "owner",
          "type": "address"
        }
      ],
      "name": "ERC721IncorrectOwner",
      "type": "error"
    },
    {
      "inputs": [
        {
          "internalType": "address",
          "name": "operator",
          "type": "address"
        },
        {
          "internalType": "uint256",
          "name": "tokenId",
          "type": "uint256"
        }
      ],
      "name": "ERC721InsufficientApproval",
      "type": "error"
    },
    {
      "inputs": [
        {
          "internalType": "address",
          "name": "approver",
          "type": "address"
        }
      ],
      "name": "ERC721InvalidApprover",
      "type": "error"
    },
    {
      "inputs": [
        {
          "internalType": "address",
          "name": "operator",
          "type": "address"
        }
      ],
      "name": "ERC721InvalidOperator",
      "type": "error"
    },
    {
      "inputs": [
        {
          "internalType": "address",
          "name": "owner",
          "type": "address"
        }
      ],
      "name": "ERC721InvalidOwner",
      "type": "error"
    },
    {
      "inputs": [
        {
          "internalType": "address",
          "name": "receiver",
          "type": "address"
        }
      ],
      "name": "ERC721InvalidReceiver",
      "type": "error"
    },
    {
      "inputs": [
        {
          "internalType": "address",
          "name": "sender",
          "type": "address"
        }
      ],
      "name": "ERC721InvalidSender",
      "type": "error"
    },
    {
      "inputs": [
        {
          "internalType": "uint256",
          "name": "tokenId",
          "type": "uint256"
        }
      ],
      "name": "ERC721NonexistentToken",
      "type": "error"
    },
    {
      "inputs": [
        {
          "internalType": "address",
          "name": "owner",
          "type": "address"
        }
      ],
      "name": "OwnableInvalidOwner",
      "type": "error"
    },
    {
      "inputs": [
        {
          "internalType": "address",
          "name": "account",
          "type": "address"
        }
      ],
      "name": "OwnableUnauthorizedAccount",
      "type": "error"
    },
    {
      "anonymous": false,
      "inputs": [
        {
          "indexed": true,
          "internalType": "address",
          "name": "owner",
          "type": "address"
        },
        {
          "indexed": true,
          "internalType": "address",
          "name": "approved",
          "type": "address"
        },
        {
          "indexed": true,
          "internalType": "uint256",
          "name": "tokenId",
          "type": "uint256"
        }
      ],
      "name": "Approval",
      "type": "event"
    },
    {
      "anonymous": false,
      "inputs": [
        {
          "indexed": true,
          "internalType": "address",
          "name": "owner",
          "type": "address"
        },
        {
          "indexed": true,
          "internalType": "address",
          "name": "operator",
          "type": "address"
        },
        {
          "indexed": false,
          "internalType": "bool",
          "name": "approved",
          "type": "bool"
        }
      ],
      "name": "ApprovalForAll",
      "type": "event"
    },
    {
      "anonymous": false,
      "inputs": [
        {
          "indexed": false,
          "internalType": "uint256",
          "name": "_fromTokenId",
          "type": "uint256"
        },
        {
          "indexed": false,
          "internalType": "uint256",
          "name": "_toTokenId",
          "type": "uint256"
        }
      ],
      "name": "BatchMetadataUpdate",
      "type": "event"
    },
    {
      "anonymous": false,
      "inputs": [
        {
          "indexed": false,
          "internalType": "uint256",
          "name": "_tokenId",
          "type": "uint256"
        }
      ],
      "name": "MetadataUpdate",
      "type": "event"
    },
    {
      "anonymous": false,
      "inputs": [
        {
          "indexed": true,
          "internalType": "address",
          "name": "previousOwner",
          "type": "address"
        },
        {
          "indexed": true,
          "internalType": "address",
          "name": "newOwner",
          "type": "address"
        }
      ],
      "name": "OwnershipTransferred",
      "type": "event"
    },
    {
      "anonymous": false,
      "inputs": [
        {
          "indexed": true,
          "internalType": "address",
          "name": "from",
          "type": "address"
        },
        {
          "indexed": true,
          "internalType": "address",
          "name": "to",
          "type": "address"
        },
        {
          "indexed": true,
          "internalType": "uint256",
          "name": "tokenId",
          "type": "uint256"
        }
      ],
      "name": "Transfer",
      "type": "event"
    },
    {
      "inputs": [
        {
          "internalType": "address",
          "name": "to",
          "type": "address"
        },
        {
          "internalType": "uint256",
          "name": "tokenId",
          "type": "uint256"
        }
      ],
      "name": "approve",
      "outputs": [],
      "stateMutability": "nonpayable",
      "type": "function"
    },
    {
      "inputs": [
        {
          "internalType": "address",
          "name": "owner",
          "type": "address"
        }
      ],
      "name": "balanceOf",
      "outputs": [
        {
          "internalType": "uint256",
          "name": "",
          "type": "uint256"
        }
      ],
      "stateMutability": "view",
      "type": "function"
    },
    {
      "inputs": [
        {
          "internalType": "uint256",
          "name": "tokenId",
          "type": "uint256"
        }
      ],
      "name": "burn",
      "outputs": [],
      "stateMutability": "nonpayable",
      "type": "function"
    },
    {
      "inputs": [
        {
          "internalType": "uint256",
          "name": "tokenId",
          "type": "uint256"
        }
      ],
      "name": "getApproved",
      "outputs": [
        {
          "internalType": "address",
          "name": "",
          "type": "address"
        }
      ],
      "stateMutability": "view",
      "type": "function"
    },
    {
      "inputs": [
        {
          "internalType": "address",
          "name": "owner",
          "type": "address"
        },
        {
          "internalType": "address",
          "name": "operator",
          "type": "address"
        }
      ],
      "name": "isApprovedForAll",
      "outputs": [
        {
          "internalType": "bool",
          "name": "",
          "type": "bool"
        }
      ],
      "stateMutability": "view",
      "type": "function"
    },
    {
      "inputs": [
        {
          "internalType": "address",
          "name": "_recipient",
          "type": "address"
        }
      ],
      "name": "mint",
      "outputs": [
        {
          "internalType": "uint256",
          "name": "",
          "type": "uint256"
        }
      ],
      "stateMutability": "payable",
      "type": "function"
    },
    {
      "inputs": [],
      "name": "mintPrice",
      "outputs": [
        {
          "internalType": "uint256",
          "name": "",
          "type": "uint256"
        }
      ],
      "stateMutability": "view",
      "type": "function"
    },
    {
      "inputs": [],
      "name": "name",
      "outputs": [
        {
          "internalType": "string",
          "name": "",
          "type": "string"
        }
      ],
      "stateMutability": "view",
      "type": "function"
    },
    {
      "inputs": [],
      "name": "owner",
      "outputs": [
        {
          "internalType": "address",
          "name": "",
          "type": "address"
        }
      ],
      "stateMutability": "view",
      "type": "function"
    },
    {
      "inputs": [
        {
          "internalType": "uint256",
          "name": "tokenId",
          "type": "uint256"
        }
      ],
      "name": "ownerOf",
      "outputs": [
        {
          "internalType": "address",
          "name": "",
          "type": "address"
        }
      ],
      "stateMutability": "view",
      "type": "function"
    },
    {
      "inputs": [],
      "name": "renounceOwnership",
      "outputs": [],
      "stateMutability": "nonpayable",
      "type": "function"
    },
    {
      "inputs": [
        {
          "internalType": "address",
          "name": "from",
          "type": "address"
        },
        {
          "internalType": "address",
          "name": "to",
          "type": "address"
        },
        {
          "internalType": "uint256",
          "name": "tokenId",
          "type": "uint256"
        }
      ],
      "name": "safeTransferFrom",
      "outputs": [],
      "stateMutability": "nonpayable",
      "type": "function"
    },
    {
      "inputs": [
        {
          "internalType": "address",
          "name": "from",
          "type": "address"
        },
        {
          "internalType": "address",
          "name": "to",
          "type": "address"
        },
        {
          "internalType": "uint256",
          "name": "tokenId",
          "type": "uint256"
        },
        {
          "internalType": "bytes",
          "name": "data",
          "type": "bytes"
        }
      ],
      "name": "safeTransferFrom",
      "outputs": [],
      "stateMutability": "nonpayable",
      "type": "function"
    },
    {
      "inputs": [
        {
          "internalType": "address",
          "name": "operator",
          "type": "address"
        },
        {
          "internalType": "bool",
          "name": "approved",
          "type": "bool"
        }
      ],
      "name": "setApprovalForAll",
      "outputs": [],
      "stateMutability": "nonpayable",
      "type": "function"
    },
    {
      "inputs": [],
      "name": "supply",
      "outputs": [
        {
          "internalType": "uint256",
          "name": "",
          "type": "uint256"
        }
      ],
      "stateMutability": "view",
      "type": "function"
    },
    {
      "inputs": [
        {
          "internalType": "bytes4",
          "name": "interfaceId",
          "type": "bytes4"
        }
      ],
      "name": "supportsInterface",
      "outputs": [
        {
          "internalType": "bool",
          "name": "",
          "type": "bool"
        }
      ],
      "stateMutability": "view",
      "type": "function"
    },
    {
      "inputs": [],
      "name": "symbol",
      "outputs": [
        {
          "internalType": "string",
          "name": "",
          "type": "string"
        }
      ],
      "stateMutability": "view",
      "type": "function"
    },
    {
      "inputs": [],
      "name": "tokenIds",
      "outputs": [
        {
          "internalType": "uint256",
          "name": "",
          "type": "uint256"
        }
      ],
      "stateMutability": "view",
      "type": "function"
    },
    {
      "inputs": [
        {
          "internalType": "uint256",
          "name": "tokenId",
          "type": "uint256"
        }
      ],
      "name": "tokenURI",
      "outputs": [
        {
          "internalType": "string",
          "name": "",
          "type": "string"
        }
      ],
      "stateMutability": "view",
      "type": "function"
    },
    {
      "inputs": [
        {
          "internalType": "address",
          "name": "from",
          "type": "address"
        },
        {
          "internalType": "address",
          "name": "to",
          "type": "address"
        },
        {
          "internalType": "uint256",
          "name": "tokenId",
          "type": "uint256"
        }
      ],
      "name": "transferFrom",
      "outputs": [],
      "stateMutability": "nonpayable",
      "type": "function"
    },
    {
      "inputs": [
        {
          "internalType": "address",
          "name": "newOwner",
          "type": "address"
        }
      ],
      "name": "transferOwnership",
      "outputs": [],
      "stateMutability": "nonpayable",
      "type": "function"
    },
    {
      "inputs": [
        {
          "internalType": "uint256",
          "name": "_price",
          "type": "uint256"
        }
      ],
      "name": "updateMintPrice",
      "outputs": [
        {
          "internalType": "uint256",
          "name": "",
          "type": "uint256"
        }
      ],
      "stateMutability": "nonpayable",
      "type": "function"
    },
    {
      "inputs": [
        {
          "internalType": "uint256",
          "name": "_supply",
          "type": "uint256"
        }
      ],
      "name": "updateSupply",
      "outputs": [
        {
          "internalType": "uint256",
          "name": "",
          "type": "uint256"
        }
      ],
      "stateMutability": "nonpayable",
      "type": "function"
    },
    {
      "inputs": [
        {
          "internalType": "string",
          "name": "_tokenUri",
          "type": "string"
        }
      ],
      "name": "updateTokeUri",
      "outputs": [
        {
          "internalType": "string",
          "name": "",
          "type": "string"
        }
      ],
      "stateMutability": "nonpayable",
      "type": "function"
    },
    {
      "inputs": [],
      "name": "withdraw",
      "outputs": [
        {
          "internalType": "bool",
          "name": "",
          "type": "bool"
        }
      ],
      "stateMutability": "payable",
      "type": "function"
    }
  ],
  "bytecode": "0x600060085568056bc75e2d631000006009556107d0600a55610120604052607760808181529062001fb360a039600b906200003b9082620001c9565b503480156200004957600080fd5b506040516200202a3803806200202a8339810160408190526200006c9162000344565b33828260006200007d8382620001c9565b5060016200008c8282620001c9565b5050506001600160a01b038116620000be57604051631e4fbdf760e01b81526000600482015260240160405180910390fd5b620000c981620000d2565b505050620003ae565b600780546001600160a01b038381166001600160a01b0319831681179093556040519116919082907f8be0079c531659141344cd1fd0a4f28419497f9722a3daafe3b4186f6b6457e090600090a35050565b634e487b7160e01b600052604160045260246000fd5b600181811c908216806200014f57607f821691505b6020821081036200017057634e487b7160e01b600052602260045260246000fd5b50919050565b601f821115620001c457600081815260208120601f850160051c810160208610156200019f5750805b601f850160051c820191505b81811015620001c057828155600101620001ab565b5050505b505050565b81516001600160401b03811115620001e557620001e562000124565b620001fd81620001f684546200013a565b8462000176565b602080601f8311600181146200023557600084156200021c5750858301515b600019600386901b1c1916600185901b178555620001c0565b600085815260208120601f198616915b82811015620002665788860151825594840194600190910190840162000245565b5085821015620002855787850151600019600388901b60f8161c191681555b5050505050600190811b01905550565b600082601f830112620002a757600080fd5b81516001600160401b0380821115620002c457620002c462000124565b604051601f8301601f19908116603f01168101908282118183101715620002ef57620002ef62000124565b816040528381526020925086838588010111156200030c57600080fd5b600091505b8382101562000330578582018301518183018401529082019062000311565b600093810190920192909252949350505050565b600080604083850312156200035857600080fd5b82516001600160401b03808211156200037057600080fd5b6200037e8683870162000295565b935060208501519150808211156200039557600080fd5b50620003a48582860162000295565b9150509250929050565b611bf580620003be6000396000f3fe6080604052600436106101955760003560e01c80636817c76c116100e15780638da5cb5b1161008a578063b88d4fde11610064578063b88d4fde1461041e578063c87b56dd1461043e578063e985e9c51461045e578063f2fde38b146104a757600080fd5b80638da5cb5b146103cb57806395d89b41146103e9578063a22cb465146103fe57600080fd5b806370a08231116100bb57806370a0823114610380578063714cff56146103a0578063715018a6146103b657600080fd5b80636817c76c146103375780636a6278421461034d5780636bd080491461036057600080fd5b8063095ea7b31161014357806342842e0e1161011d57806342842e0e146102d757806342966c68146102f75780636352211e1461031757600080fd5b8063095ea7b31461028d57806323b872dd146102af5780633ccfd60b146102cf57600080fd5b806305b4552e1161017457806305b4552e1461021357806306fdde0314610240578063081812fc1461025557600080fd5b8062728e461461019a57806301ffc9a7146101cd578063047fc9aa146101fd575b600080fd5b3480156101a657600080fd5b506101ba6101b53660046116cf565b6104c7565b6040519081526020015b60405180910390f35b3480156101d957600080fd5b506101ed6101e83660046116fe565b6104de565b60405190151581526020016101c4565b34801561020957600080fd5b506101ba600a5481565b34801561021f57600080fd5b5061023361022e3660046117a7565b610522565b6040516101c49190611840565b34801561024c57600080fd5b506102336105cb565b34801561026157600080fd5b506102756102703660046116cf565b61065d565b6040516001600160a01b0390911681526020016101c4565b34801561029957600080fd5b506102ad6102a836600461186a565b610686565b005b3480156102bb57600080fd5b506102ad6102ca366004611894565b610695565b6101ed61073e565b3480156102e357600080fd5b506102ad6102f2366004611894565b61085e565b34801561030357600080fd5b506102ad6103123660046116cf565b61087e565b34801561032357600080fd5b506102756103323660046116cf565b610910565b34801561034357600080fd5b506101ba60095481565b6101ba61035b3660046118d0565b61091b565b34801561036c57600080fd5b506101ba61037b3660046116cf565b610a7f565b34801561038c57600080fd5b506101ba61039b3660046118d0565b610b09565b3480156103ac57600080fd5b506101ba60085481565b3480156103c257600080fd5b506102ad610b6a565b3480156103d757600080fd5b506007546001600160a01b0316610275565b3480156103f557600080fd5b50610233610b7e565b34801561040a57600080fd5b506102ad6104193660046118eb565b610b8d565b34801561042a57600080fd5b506102ad610439366004611927565b610b98565b34801561044a57600080fd5b506102336104593660046116cf565b610bb0565b34801561046a57600080fd5b506101ed6104793660046119a3565b6001600160a01b03918216600090815260056020908152604080832093909416825291909152205460ff1690565b3480156104b357600080fd5b506102ad6104c23660046118d0565b610cc1565b60006104d1610d15565b506009819055805b919050565b60006001600160e01b031982167f4906490600000000000000000000000000000000000000000000000000000000148061051c575061051c82610d5b565b92915050565b606061052c610d15565b600b6105388382611a56565b50600b8054610546906119d6565b80601f0160208091040260200160405190810160405280929190818152602001828054610572906119d6565b80156105bf5780601f10610594576101008083540402835291602001916105bf565b820191906000526020600020905b8154815290600101906020018083116105a257829003601f168201915b50505050509050919050565b6060600080546105da906119d6565b80601f0160208091040260200160405190810160405280929190818152602001828054610606906119d6565b80156106535780601f1061062857610100808354040283529160200191610653565b820191906000526020600020905b81548152906001019060200180831161063657829003601f168201915b5050505050905090565b600061066882610df6565b506000828152600460205260409020546001600160a01b031661051c565b610691828233610e2f565b5050565b6001600160a01b0382166106c457604051633250574960e11b8152600060048201526024015b60405180910390fd5b60006106d1838333610e3c565b9050836001600160a01b0316816001600160a01b031614610738576040517f64283d7b0000000000000000000000000000000000000000000000000000000081526001600160a01b03808616600483015260248201849052821660448201526064016106bb565b50505050565b6000610748610d15565b6007546001600160a01b031633146107a25760405162461bcd60e51b815260206004820152600c60248201527f556e617574686f72697a6564000000000000000000000000000000000000000060448201526064016106bb565b60006107b66007546001600160a01b031690565b6001600160a01b03164760405160006040518083038185875af1925050503d8060008114610800576040519150601f19603f3d011682016040523d82523d6000602084013e610805565b606091505b50509050806108565760405162461bcd60e51b815260206004820152601060248201527f5769746864726177206661696c65642e0000000000000000000000000000000060448201526064016106bb565b600191505090565b61087983838360405180602001604052806000815250610b98565b505050565b3361088882610910565b6001600160a01b0316146109045760405162461bcd60e51b815260206004820152602660248201527f4f6e6c7920746865206f776e6572206f6620746865204e46542063616e20627560448201527f726e2069742e000000000000000000000000000000000000000000000000000060648201526084016106bb565b61090d81610f42565b50565b600061051c82610df6565b6000600954341461096e5760405162461bcd60e51b815260206004820152601060248201527f313030205155414920746f204d696e740000000000000000000000000000000060448201526064016106bb565b600854600a5481106109c25760405162461bcd60e51b815260206004820152600c60248201527f4e6f206d6f7265204e465473000000000000000000000000000000000000000060448201526064016106bb565b6109cc8382610f7d565b610a6081600b80546109dd906119d6565b80601f0160208091040260200160405190810160405280929190818152602001828054610a09906119d6565b8015610a565780601f10610a2b57610100808354040283529160200191610a56565b820191906000526020600020905b815481529060010190602001808311610a3957829003601f168201915b5050505050610ffb565b600160086000828254610a739190611b16565b90915550909392505050565b6000610a89610d15565b6008548211610b005760405162461bcd60e51b815260206004820152603660248201527f4e657720737570706c79206d7573742062652067726561746572207468616e2060448201527f63757272656e74206d696e74656420737570706c792e0000000000000000000060648201526084016106bb565b50600a81905590565b60006001600160a01b038216610b4e576040517f89c62b64000000000000000000000000000000000000000000000000000000008152600060048201526024016106bb565b506001600160a01b031660009081526003602052604090205490565b610b72610d15565b610b7c600061104b565b565b6060600180546105da906119d6565b6106913383836110aa565b610ba3848484610695565b6107383385858585611162565b6060610bbb82610df6565b5060008281526006602052604081208054610bd5906119d6565b80601f0160208091040260200160405190810160405280929190818152602001828054610c01906119d6565b8015610c4e5780601f10610c2357610100808354040283529160200191610c4e565b820191906000526020600020905b815481529060010190602001808311610c3157829003601f168201915b505050505090506000610c6c60408051602081019091526000815290565b90508051600003610c7e575092915050565b815115610cb0578082604051602001610c98929190611b37565b60405160208183030381529060405292505050919050565b610cb98461128d565b949350505050565b610cc9610d15565b6001600160a01b038116610d0c576040517f1e4fbdf7000000000000000000000000000000000000000000000000000000008152600060048201526024016106bb565b61090d8161104b565b6007546001600160a01b03163314610b7c576040517f118cdaa70000000000000000000000000000000000000000000000000000000081523360048201526024016106bb565b60006001600160e01b031982167f80ac58cd000000000000000000000000000000000000000000000000000000001480610dbe57506001600160e01b031982167f5b5e139f00000000000000000000000000000000000000000000000000000000145b8061051c57507f01ffc9a7000000000000000000000000000000000000000000000000000000006001600160e01b031983161461051c565b6000818152600260205260408120546001600160a01b03168061051c57604051637e27328960e01b8152600481018490526024016106bb565b6108798383836001611302565b6000828152600260205260408120546001600160a01b0390811690831615610e6957610e6981848661144d565b6001600160a01b03811615610ea757610e86600085600080611302565b6001600160a01b038116600090815260036020526040902080546000190190555b6001600160a01b03851615610ed6576001600160a01b0385166000908152600360205260409020805460010190555b600084815260026020526040808220805473ffffffffffffffffffffffffffffffffffffffff19166001600160a01b0389811691821790925591518793918516917fddf252ad1be2c89b69c2b068fc378daa952ba7f163c4a11628f55a4df523b3ef91a4949350505050565b6000610f516000836000610e3c565b90506001600160a01b03811661069157604051637e27328960e01b8152600481018390526024016106bb565b6001600160a01b038216610fa757604051633250574960e11b8152600060048201526024016106bb565b6000610fb583836000610e3c565b90506001600160a01b03811615610879576040517f73c6ac6e000000000000000000000000000000000000000000000000000000008152600060048201526024016106bb565b60008281526006602052604090206110138282611a56565b506040518281527ff8e1a15aba9398e019f0b49df1a4fde98ee17ae345cb5f6b5e2c27f5033e8ce79060200160405180910390a15050565b600780546001600160a01b0383811673ffffffffffffffffffffffffffffffffffffffff19831681179093556040519116919082907f8be0079c531659141344cd1fd0a4f28419497f9722a3daafe3b4186f6b6457e090600090a35050565b6001600160a01b0382166110f5576040517f5b08ba180000000000000000000000000000000000000000000000000000000081526001600160a01b03831660048201526024016106bb565b6001600160a01b03838116600081815260056020908152604080832094871680845294825291829020805460ff191686151590811790915591519182527f17307eab39ab6107e8899845ad3d59bd9653f200f220920489ca2b5937696c31910160405180910390a3505050565b6001600160a01b0383163b1561128657604051630a85bd0160e11b81526001600160a01b0384169063150b7a02906111a4908890889087908790600401611b66565b6020604051808303816000875af19250505080156111df575060408051601f3d908101601f191682019092526111dc91810190611ba2565b60015b611248573d80801561120d576040519150601f19603f3d011682016040523d82523d6000602084013e611212565b606091505b50805160000361124057604051633250574960e11b81526001600160a01b03851660048201526024016106bb565b805181602001fd5b6001600160e01b03198116630a85bd0160e11b1461128457604051633250574960e11b81526001600160a01b03851660048201526024016106bb565b505b5050505050565b606061129882610df6565b5060006112b060408051602081019091526000815290565b905060008151116112d057604051806020016040528060008152506112fb565b806112da846114ca565b6040516020016112eb929190611b37565b6040516020818303038152906040525b9392505050565b808061131657506001600160a01b03821615155b1561141057600061132684610df6565b90506001600160a01b038316158015906113525750826001600160a01b0316816001600160a01b031614155b801561138457506001600160a01b0380821660009081526005602090815260408083209387168352929052205460ff16155b156113c6576040517fa9fbf51f0000000000000000000000000000000000000000000000000000000081526001600160a01b03841660048201526024016106bb565b811561140e5783856001600160a01b0316826001600160a01b03167f8c5be1e5ebec7d5bd14f71427d1e84f3dd0314c0f7b2291e5b200ac8c7c3b92560405160405180910390a45b505b50506000908152600460205260409020805473ffffffffffffffffffffffffffffffffffffffff19166001600160a01b0392909216919091179055565b61145883838361156a565b610879576001600160a01b03831661148657604051637e27328960e01b8152600481018290526024016106bb565b6040517f177e802f0000000000000000000000000000000000000000000000000000000081526001600160a01b0383166004820152602481018290526044016106bb565b606060006114d7836115ed565b600101905060008167ffffffffffffffff8111156114f7576114f761171b565b6040519080825280601f01601f191660200182016040528015611521576020820181803683370190505b5090508181016020015b600019017f3031323334353637383961626364656600000000000000000000000000000000600a86061a8153600a850494508461152b57509392505050565b60006001600160a01b03831615801590610cb95750826001600160a01b0316846001600160a01b031614806115c457506001600160a01b0380851660009081526005602090815260408083209387168352929052205460ff165b80610cb95750506000908152600460205260409020546001600160a01b03908116911614919050565b6000807a184f03e93ff9f4daa797ed6e38ed64bf6a1f0100000000000000008310611636577a184f03e93ff9f4daa797ed6e38ed64bf6a1f010000000000000000830492506040015b6d04ee2d6d415b85acef81000000008310611662576d04ee2d6d415b85acef8100000000830492506020015b662386f26fc10000831061168057662386f26fc10000830492506010015b6305f5e1008310611698576305f5e100830492506008015b61271083106116ac57612710830492506004015b606483106116be576064830492506002015b600a831061051c5760010192915050565b6000602082840312156116e157600080fd5b5035919050565b6001600160e01b03198116811461090d57600080fd5b60006020828403121561171057600080fd5b81356112fb816116e8565b634e487b7160e01b600052604160045260246000fd5b600067ffffffffffffffff8084111561174c5761174c61171b565b604051601f8501601f19908116603f011681019082821181831017156117745761177461171b565b8160405280935085815286868601111561178d57600080fd5b858560208301376000602087830101525050509392505050565b6000602082840312156117b957600080fd5b813567ffffffffffffffff8111156117d057600080fd5b8201601f810184136117e157600080fd5b610cb984823560208401611731565b60005b8381101561180b5781810151838201526020016117f3565b50506000910152565b6000815180845261182c8160208601602086016117f0565b601f01601f19169290920160200192915050565b6020815260006112fb6020830184611814565b80356001600160a01b03811681146104d957600080fd5b6000806040838503121561187d57600080fd5b61188683611853565b946020939093013593505050565b6000806000606084860312156118a957600080fd5b6118b284611853565b92506118c060208501611853565b9150604084013590509250925092565b6000602082840312156118e257600080fd5b6112fb82611853565b600080604083850312156118fe57600080fd5b61190783611853565b91506020830135801515811461191c57600080fd5b809150509250929050565b6000806000806080858703121561193d57600080fd5b61194685611853565b935061195460208601611853565b925060408501359150606085013567ffffffffffffffff81111561197757600080fd5b8501601f8101871361198857600080fd5b61199787823560208401611731565b91505092959194509250565b600080604083850312156119b657600080fd5b6119bf83611853565b91506119cd60208401611853565b90509250929050565b600181811c908216806119ea57607f821691505b602082108103611a0a57634e487b7160e01b600052602260045260246000fd5b50919050565b601f82111561087957600081815260208120601f850160051c81016020861015611a375750805b601f850160051c820191505b8181101561128457828155600101611a43565b815167ffffffffffffffff811115611a7057611a7061171b565b611a8481611a7e84546119d6565b84611a10565b602080601f831160018114611ab95760008415611aa15750858301515b600019600386901b1c1916600185901b178555611284565b600085815260208120601f198616915b82811015611ae857888601518255948401946001909101908401611ac9565b5085821015611b065787850151600019600388901b60f8161c191681555b5050505050600190811b01905550565b8082018082111561051c57634e487b7160e01b600052601160045260246000fd5b60008351611b498184602088016117f0565b835190830190611b5d8183602088016117f0565b01949350505050565b60006001600160a01b03808716835280861660208401525083604083015260806060830152611b986080830184611814565b9695505050505050565b600060208284031215611bb457600080fd5b81516112fb816116e856fea2646970667358221220170e36879fb2940519454bb9f1d96e37548900ae24e2c0cff59d527b58de029464736f6c6343000814003368747470733a2f2f74757271756f6973652d656c61626f726174652d646f6c7068696e2d3438312e6d7970696e6174612e636c6f75642f697066732f6261666b72656963356776656963616e7534646c65326e33727474346e7376783668326b683578623568356b626279643732636c3667706e7a7169",
  "linkReferences": {},
  "deployedLinkReferences": {}
}