{
    "contractName": "QFCToken",
    "abi": [
        {
            "inputs": [
                {
                    "internalType": "string",
                    "name": "name",
                    "type": "string"
                },
                {
                    "internalType": "string",
                    "name": "symbol",
                    "type": "string"
                },
                {
                    "internalType": "string",
                    "name": "baseTokenURI_",
                    "type": "string"
                }
            ],
            "stateMutability": "nonpayable",
            "type": "constructor"
        },
        {
            "inputs": [
                {
                    "internalType": "address",
                    "name": "sender",
                    "type": "address"
                },
                {
                    "internalType": "uint256",
                    "name": "tokenId",
                    "type": "uint256"
                },
                {
                    "internalType": "address",
                    "name": "owner",
                    "type": "address"
                }
            ],
            "name": "ERC721IncorrectOwner",
            "type": "error"
        },
        {
            "inputs": [
                {
                    "internalType": "address",
                    "name": "operator",
                    "type": "address"
                },
                {
                    "internalType": "uint256",
                    "name": "tokenId",
                    "type": "uint256"
                }
            ],
            "name": "ERC721InsufficientApproval",
            "type": "error"
        },
        {
            "inputs": [
                {
                    "internalType": "address",
                    "name": "approver",
                    "type": "address"
                }
            ],
            "name": "ERC721InvalidApprover",
            "type": "error"
        },
        {
            "inputs": [
                {
                    "internalType": "address",
                    "name": "operator",
                    "type": "address"
                }
            ],
            "name": "ERC721InvalidOperator",
            "type": "error"
        },
        {
            "inputs": [
                {
                    "internalType": "address",
                    "name": "owner",
                    "type": "address"
                }
            ],
            "name": "ERC721InvalidOwner",
            "type": "error"
        },
        {
            "inputs": [
                {
                    "internalType": "address",
                    "name": "receiver",
                    "type": "address"
                }
            ],
            "name": "ERC721InvalidReceiver",
            "type": "error"
        },
        {
            "inputs": [
                {
                    "internalType": "address",
                    "name": "sender",
                    "type": "address"
                }
            ],
            "name": "ERC721InvalidSender",
            "type": "error"
        },
        {
            "inputs": [
                {
                    "internalType": "uint256",
                    "name": "tokenId",
                    "type": "uint256"
                }
            ],
            "name": "ERC721NonexistentToken",
            "type": "error"
        },
        {
            "inputs": [
                {
                    "internalType": "address",
                    "name": "owner",
                    "type": "address"
                }
            ],
            "name": "OwnableInvalidOwner",
            "type": "error"
        },
        {
            "inputs": [
                {
                    "internalType": "address",
                    "name": "account",
                    "type": "address"
                }
            ],
            "name": "OwnableUnauthorizedAccount",
            "type": "error"
        },
        {
            "anonymous": false,
            "inputs": [
                {
                    "indexed": true,
                    "internalType": "address",
                    "name": "owner",
                    "type": "address"
                },
                {
                    "indexed": true,
                    "internalType": "address",
                    "name": "approved",
                    "type": "address"
                },
                {
                    "indexed": true,
                    "internalType": "uint256",
                    "name": "tokenId",
                    "type": "uint256"
                }
            ],
            "name": "Approval",
            "type": "event"
        },
        {
            "anonymous": false,
            "inputs": [
                {
                    "indexed": true,
                    "internalType": "address",
                    "name": "owner",
                    "type": "address"
                },
                {
                    "indexed": true,
                    "internalType": "address",
                    "name": "operator",
                    "type": "address"
                },
                {
                    "indexed": false,
                    "internalType": "bool",
                    "name": "approved",
                    "type": "bool"
                }
            ],
            "name": "ApprovalForAll",
            "type": "event"
        },
        {
            "anonymous": false,
            "inputs": [
                {
                    "indexed": true,
                    "internalType": "address",
                    "name": "previousOwner",
                    "type": "address"
                },
                {
                    "indexed": true,
                    "internalType": "address",
                    "name": "newOwner",
                    "type": "address"
                }
            ],
            "name": "OwnershipTransferred",
            "type": "event"
        },
        {
            "anonymous": false,
            "inputs": [
                {
                    "indexed": true,
                    "internalType": "address",
                    "name": "from",
                    "type": "address"
                },
                {
                    "indexed": true,
                    "internalType": "address",
                    "name": "to",
                    "type": "address"
                },
                {
                    "indexed": true,
                    "internalType": "uint256",
                    "name": "tokenId",
                    "type": "uint256"
                }
            ],
            "name": "Transfer",
            "type": "event"
        },
        {
            "inputs": [
                {
                    "internalType": "address",
                    "name": "to",
                    "type": "address"
                },
                {
                    "internalType": "uint256",
                    "name": "tokenId",
                    "type": "uint256"
                }
            ],
            "name": "approve",
            "outputs": [],
            "stateMutability": "nonpayable",
            "type": "function"
        },
        {
            "inputs": [
                {
                    "internalType": "address",
                    "name": "owner",
                    "type": "address"
                }
            ],
            "name": "balanceOf",
            "outputs": [
                {
                    "internalType": "uint256",
                    "name": "",
                    "type": "uint256"
                }
            ],
            "stateMutability": "view",
            "type": "function"
        },
        {
            "inputs": [
                {
                    "internalType": "uint256",
                    "name": "tokenId",
                    "type": "uint256"
                }
            ],
            "name": "getApproved",
            "outputs": [
                {
                    "internalType": "address",
                    "name": "",
                    "type": "address"
                }
            ],
            "stateMutability": "view",
            "type": "function"
        },
        {
            "inputs": [
                {
                    "internalType": "address",
                    "name": "owner",
                    "type": "address"
                },
                {
                    "internalType": "address",
                    "name": "operator",
                    "type": "address"
                }
            ],
            "name": "isApprovedForAll",
            "outputs": [
                {
                    "internalType": "bool",
                    "name": "",
                    "type": "bool"
                }
            ],
            "stateMutability": "view",
            "type": "function"
        },
        {
            "inputs": [
                {
                    "internalType": "address",
                    "name": "to",
                    "type": "address"
                }
            ],
            "name": "mint",
            "outputs": [],
            "stateMutability": "nonpayable",
            "type": "function"
        },
        {
            "inputs": [],
            "name": "name",
            "outputs": [
                {
                    "internalType": "string",
                    "name": "",
                    "type": "string"
                }
            ],
            "stateMutability": "view",
            "type": "function"
        },
        {
            "inputs": [],
            "name": "owner",
            "outputs": [
                {
                    "internalType": "address",
                    "name": "",
                    "type": "address"
                }
            ],
            "stateMutability": "view",
            "type": "function"
        },
        {
            "inputs": [
                {
                    "internalType": "uint256",
                    "name": "tokenId",
                    "type": "uint256"
                }
            ],
            "name": "ownerOf",
            "outputs": [
                {
                    "internalType": "address",
                    "name": "",
                    "type": "address"
                }
            ],
            "stateMutability": "view",
            "type": "function"
        },
        {
            "inputs": [],
            "name": "renounceOwnership",
            "outputs": [],
            "stateMutability": "nonpayable",
            "type": "function"
        },
        {
            "inputs": [
                {
                    "internalType": "address",
                    "name": "from",
                    "type": "address"
                },
                {
                    "internalType": "address",
                    "name": "to",
                    "type": "address"
                },
                {
                    "internalType": "uint256",
                    "name": "tokenId",
                    "type": "uint256"
                }
            ],
            "name": "safeTransferFrom",
            "outputs": [],
            "stateMutability": "nonpayable",
            "type": "function"
        },
        {
            "inputs": [
                {
                    "internalType": "address",
                    "name": "from",
                    "type": "address"
                },
                {
                    "internalType": "address",
                    "name": "to",
                    "type": "address"
                },
                {
                    "internalType": "uint256",
                    "name": "tokenId",
                    "type": "uint256"
                },
                {
                    "internalType": "bytes",
                    "name": "data",
                    "type": "bytes"
                }
            ],
            "name": "safeTransferFrom",
            "outputs": [],
            "stateMutability": "nonpayable",
            "type": "function"
        },
        {
            "inputs": [
                {
                    "internalType": "address",
                    "name": "operator",
                    "type": "address"
                },
                {
                    "internalType": "bool",
                    "name": "approved",
                    "type": "bool"
                }
            ],
            "name": "setApprovalForAll",
            "outputs": [],
            "stateMutability": "nonpayable",
            "type": "function"
        },
        {
            "inputs": [
                {
                    "internalType": "bytes4",
                    "name": "interfaceId",
                    "type": "bytes4"
                }
            ],
            "name": "supportsInterface",
            "outputs": [
                {
                    "internalType": "bool",
                    "name": "",
                    "type": "bool"
                }
            ],
            "stateMutability": "view",
            "type": "function"
        },
        {
            "inputs": [],
            "name": "symbol",
            "outputs": [
                {
                    "internalType": "string",
                    "name": "",
                    "type": "string"
                }
            ],
            "stateMutability": "view",
            "type": "function"
        },
        {
            "inputs": [
                {
                    "internalType": "uint256",
                    "name": "tokenId",
                    "type": "uint256"
                }
            ],
            "name": "tokenURI",
            "outputs": [
                {
                    "internalType": "string",
                    "name": "",
                    "type": "string"
                }
            ],
            "stateMutability": "view",
            "type": "function"
        },
        {
            "inputs": [
                {
                    "internalType": "address",
                    "name": "from",
                    "type": "address"
                },
                {
                    "internalType": "address",
                    "name": "to",
                    "type": "address"
                },
                {
                    "internalType": "uint256",
                    "name": "tokenId",
                    "type": "uint256"
                }
            ],
            "name": "transferFrom",
            "outputs": [],
            "stateMutability": "nonpayable",
            "type": "function"
        },
        {
            "inputs": [
                {
                    "internalType": "address",
                    "name": "newOwner",
                    "type": "address"
                }
            ],
            "name": "transferOwnership",
            "outputs": [],
            "stateMutability": "nonpayable",
            "type": "function"
        }
    ],
    "bytecode": "608060405234801561000f575f80fd5b5060405161144038038061144083398101604081905261002e9161018a565b3383835f61003c838261028f565b506001610049828261028f565b5050506001600160a01b03811661007957604051631e4fbdf760e01b81525f600482015260240160405180910390fd5b6100828161009d565b50600761008f828261028f565b50505f6008555061034e9050565b600680546001600160a01b038381166001600160a01b0319831681179093556040519116919082907f8be0079c531659141344cd1fd0a4f28419497f9722a3daafe3b4186f6b6457e0905f90a35050565b634e487b7160e01b5f52604160045260245ffd5b5f82601f830112610111575f80fd5b81516001600160401b038082111561012b5761012b6100ee565b604051601f8301601f19908116603f01168101908282118183101715610153576101536100ee565b8160405283815286602085880101111561016b575f80fd5b8360208701602083015e5f602085830101528094505050505092915050565b5f805f6060848603121561019c575f80fd5b83516001600160401b03808211156101b2575f80fd5b6101be87838801610102565b945060208601519150808211156101d3575f80fd5b6101df87838801610102565b935060408601519150808211156101f4575f80fd5b5061020186828701610102565b9150509250925092565b600181811c9082168061021f57607f821691505b60208210810361023d57634e487b7160e01b5f52602260045260245ffd5b50919050565b601f82111561028a57805f5260205f20601f840160051c810160208510156102685750805b601f840160051c820191505b81811015610287575f8155600101610274565b50505b505050565b81516001600160401b038111156102a8576102a86100ee565b6102bc816102b6845461020b565b84610243565b602080601f8311600181146102ef575f84156102d85750858301515b5f19600386901b1c1916600185901b178555610346565b5f85815260208120601f198616915b8281101561031d578886015182559484019460019091019084016102fe565b508582101561033a57878501515f19600388901b60f8161c191681555b505060018460011b0185555b505050505050565b6110e58061035b5f395ff3fe608060405234801561000f575f80fd5b5060043610610106575f3560e01c806370a082311161009e578063a22cb4651161006e578063a22cb46514610215578063b88d4fde14610228578063c87b56dd1461023b578063e985e9c51461024e578063f2fde38b14610261575f80fd5b806370a08231146101d3578063715018a6146101f45780638da5cb5b146101fc57806395d89b411461020d575f80fd5b806323b872dd116100d957806323b872dd1461018757806342842e0e1461019a5780636352211e146101ad5780636a627842146101c0575f80fd5b806301ffc9a71461010a57806306fdde0314610132578063081812fc14610147578063095ea7b314610172575b5f80fd5b61011d610118366004610d77565b610274565b60405190151581526020015b60405180910390f35b61013a6102c5565b6040516101299190610dc0565b61015a610155366004610dd2565b610354565b6040516001600160a01b039091168152602001610129565b610185610180366004610e04565b61037b565b005b610185610195366004610e2c565b61038a565b6101856101a8366004610e2c565b610418565b61015a6101bb366004610dd2565b610437565b6101856101ce366004610e65565b610441565b6101e66101e1366004610e65565b6104bf565b604051908152602001610129565b610185610504565b6006546001600160a01b031661015a565b61013a610517565b610185610223366004610e7e565b610526565b610185610236366004610ecb565b610531565b61013a610249366004610dd2565b610548565b61011d61025c366004610fa0565b6105ad565b61018561026f366004610e65565b6105da565b5f6001600160e01b031982166380ac58cd60e01b14806102a457506001600160e01b03198216635b5e139f60e01b145b806102bf57506301ffc9a760e01b6001600160e01b03198316145b92915050565b60605f80546102d390610fd1565b80601f01602080910402602001604051908101604052809291908181526020018280546102ff90610fd1565b801561034a5780601f106103215761010080835404028352916020019161034a565b820191905f5260205f20905b81548152906001019060200180831161032d57829003601f168201915b5050505050905090565b5f61035e82610617565b505f828152600460205260409020546001600160a01b03166102bf565b61038682823361064f565b5050565b6001600160a01b0382166103b857604051633250574960e11b81525f60048201526024015b60405180910390fd5b5f6103c483833361065c565b9050836001600160a01b0316816001600160a01b031614610412576040516364283d7b60e01b81526001600160a01b03808616600483015260248201849052821660448201526064016103af565b50505050565b61043283838360405180602001604052805f815250610531565b505050565b5f6102bf82610617565b61044961074e565b6103e86008541061049c5760405162461bcd60e51b815260206004820152601b60248201527f416c6c20746f6b656e732068617665206265656e206d696e746564000000000060448201526064016103af565b6104a88160085461077b565b60088054905f6104b783611009565b919050555050565b5f6001600160a01b0382166104e9576040516322718ad960e21b81525f60048201526024016103af565b506001600160a01b03165f9081526003602052604090205490565b61050c61074e565b6105155f610794565b565b6060600180546102d390610fd1565b6103863383836107e5565b61053c84848461038a565b61041284848484610883565b606061055382610617565b505f61055d6109a9565b90505f81511161057b5760405180602001604052805f8152506105a6565b80610585846109b8565b604051602001610596929190611044565b6040516020818303038152906040525b9392505050565b6001600160a01b039182165f90815260056020908152604080832093909416825291909152205460ff1690565b6105e261074e565b6001600160a01b03811661060b57604051631e4fbdf760e01b81525f60048201526024016103af565b61061481610794565b50565b5f818152600260205260408120546001600160a01b0316806102bf57604051637e27328960e01b8152600481018490526024016103af565b6104328383836001610a48565b5f828152600260205260408120546001600160a01b039081169083161561068857610688818486610b4c565b6001600160a01b038116156106c2576106a35f855f80610a48565b6001600160a01b0381165f90815260036020526040902080545f190190555b6001600160a01b038516156106f0576001600160a01b0385165f908152600360205260409020805460010190555b5f8481526002602052604080822080546001600160a01b0319166001600160a01b0389811691821790925591518793918516917fddf252ad1be2c89b69c2b068fc378daa952ba7f163c4a11628f55a4df523b3ef91a4949350505050565b6006546001600160a01b031633146105155760405163118cdaa760e01b81523360048201526024016103af565b610386828260405180602001604052805f815250610bb0565b600680546001600160a01b038381166001600160a01b0319831681179093556040519116919082907f8be0079c531659141344cd1fd0a4f28419497f9722a3daafe3b4186f6b6457e0905f90a35050565b6001600160a01b03821661081757604051630b61174360e31b81526001600160a01b03831660048201526024016103af565b6001600160a01b038381165f81815260056020908152604080832094871680845294825291829020805460ff191686151590811790915591519182527f17307eab39ab6107e8899845ad3d59bd9653f200f220920489ca2b5937696c31910160405180910390a3505050565b6001600160a01b0383163b1561041257604051630a85bd0160e11b81526001600160a01b0384169063150b7a02906108c5903390889087908790600401611058565b6020604051808303815f875af19250505080156108ff575060408051601f3d908101601f191682019092526108fc91810190611094565b60015b610966573d80801561092c576040519150601f19603f3d011682016040523d82523d5f602084013e610931565b606091505b5080515f0361095e57604051633250574960e11b81526001600160a01b03851660048201526024016103af565b805181602001fd5b6001600160e01b03198116630a85bd0160e11b146109a257604051633250574960e11b81526001600160a01b03851660048201526024016103af565b5050505050565b6060600780546102d390610fd1565b60605f6109c483610bc6565b60010190505f8167ffffffffffffffff8111156109e3576109e3610eb7565b6040519080825280601f01601f191660200182016040528015610a0d576020820181803683370190505b5090508181016020015b5f19016f181899199a1a9b1b9c1cb0b131b232b360811b600a86061a8153600a8504945084610a1757509392505050565b8080610a5c57506001600160a01b03821615155b15610b1d575f610a6b84610617565b90506001600160a01b03831615801590610a975750826001600160a01b0316816001600160a01b031614155b8015610aaa5750610aa881846105ad565b155b15610ad35760405163a9fbf51f60e01b81526001600160a01b03841660048201526024016103af565b8115610b1b5783856001600160a01b0316826001600160a01b03167f8c5be1e5ebec7d5bd14f71427d1e84f3dd0314c0f7b2291e5b200ac8c7c3b92560405160405180910390a45b505b50505f90815260046020526040902080546001600160a01b0319166001600160a01b0392909216919091179055565b610b57838383610c9d565b610432576001600160a01b038316610b8557604051637e27328960e01b8152600481018290526024016103af565b60405163177e802f60e01b81526001600160a01b0383166004820152602481018290526044016103af565b610bba8383610d01565b6104325f848484610883565b5f8072184f03e93ff9f4daa797ed6e38ed64bf6a1f0160401b8310610c045772184f03e93ff9f4daa797ed6e38ed64bf6a1f0160401b830492506040015b6d04ee2d6d415b85acef81000000008310610c30576d04ee2d6d415b85acef8100000000830492506020015b662386f26fc100008310610c4e57662386f26fc10000830492506010015b6305f5e1008310610c66576305f5e100830492506008015b6127108310610c7a57612710830492506004015b60648310610c8c576064830492506002015b600a83106102bf5760010192915050565b5f6001600160a01b03831615801590610cf95750826001600160a01b0316846001600160a01b03161480610cd65750610cd684846105ad565b80610cf957505f828152600460205260409020546001600160a01b038481169116145b949350505050565b6001600160a01b038216610d2a57604051633250574960e11b81525f60048201526024016103af565b5f610d3683835f61065c565b90506001600160a01b03811615610432576040516339e3563760e11b81525f60048201526024016103af565b6001600160e01b031981168114610614575f80fd5b5f60208284031215610d87575f80fd5b81356105a681610d62565b5f81518084528060208401602086015e5f602082860101526020601f19601f83011685010191505092915050565b602081525f6105a66020830184610d92565b5f60208284031215610de2575f80fd5b5035919050565b80356001600160a01b0381168114610dff575f80fd5b919050565b5f8060408385031215610e15575f80fd5b610e1e83610de9565b946020939093013593505050565b5f805f60608486031215610e3e575f80fd5b610e4784610de9565b9250610e5560208501610de9565b9150604084013590509250925092565b5f60208284031215610e75575f80fd5b6105a682610de9565b5f8060408385031215610e8f575f80fd5b610e9883610de9565b915060208301358015158114610eac575f80fd5b809150509250929050565b634e487b7160e01b5f52604160045260245ffd5b5f805f8060808587031215610ede575f80fd5b610ee785610de9565b9350610ef560208601610de9565b925060408501359150606085013567ffffffffffffffff80821115610f18575f80fd5b818701915087601f830112610f2b575f80fd5b813581811115610f3d57610f3d610eb7565b604051601f8201601f19908116603f01168101908382118183101715610f6557610f65610eb7565b816040528281528a6020848701011115610f7d575f80fd5b826020860160208301375f60208483010152809550505050505092959194509250565b5f8060408385031215610fb1575f80fd5b610fba83610de9565b9150610fc860208401610de9565b90509250929050565b600181811c90821680610fe557607f821691505b60208210810361100357634e487b7160e01b5f52602260045260245ffd5b50919050565b5f6001820161102657634e487b7160e01b5f52601160045260245ffd5b5060010190565b5f81518060208401855e5f93019283525090919050565b5f610cf9611052838661102d565b8461102d565b6001600160a01b03858116825284166020820152604081018390526080606082018190525f9061108a90830184610d92565b9695505050505050565b5f602082840312156110a4575f80fd5b81516105a681610d6256fea26469706673582212208a493c148643257fdc329d7a638e410deff222a769c983c4294085b75c58562764736f6c63430008190033",
    "sourcePath": "c:/APPLICATION/QFan/quais-by-example/contract-erc721/contract/QFC.sol",
    "compiler": {
        "name": "solc",
        "version": "0.8.25+commit.b61c2a91"
    },
    "functionHashes": {
        "approve(address,uint256)": "095ea7b3",
        "balanceOf(address)": "70a08231",
        "getApproved(uint256)": "081812fc",
        "isApprovedForAll(address,address)": "e985e9c5",
        "mint(address)": "6a627842",
        "name()": "06fdde03",
        "owner()": "8da5cb5b",
        "ownerOf(uint256)": "6352211e",
        "renounceOwnership()": "715018a6",
        "safeTransferFrom(address,address,uint256)": "42842e0e",
        "safeTransferFrom(address,address,uint256,bytes)": "b88d4fde",
        "setApprovalForAll(address,bool)": "a22cb465",
        "supportsInterface(bytes4)": "01ffc9a7",
        "symbol()": "95d89b41",
        "tokenURI(uint256)": "c87b56dd",
        "transferFrom(address,address,uint256)": "23b872dd",
        "transferOwnership(address)": "f2fde38b"
    },
    "gasEstimates": {
        "creation": {
            "codeDepositCost": "865000",
            "executionCost": "infinite",
            "totalCost": "infinite"
        },
        "external": {
            "approve(address,uint256)": "31531",
            "balanceOf(address)": "2608",
            "getApproved(uint256)": "infinite",
            "isApprovedForAll(address,address)": "infinite",
            "mint(address)": "infinite",
            "name()": "infinite",
            "owner()": "2397",
            "ownerOf(uint256)": "infinite",
            "renounceOwnership()": "infinite",
            "safeTransferFrom(address,address,uint256)": "infinite",
            "safeTransferFrom(address,address,uint256,bytes)": "infinite",
            "setApprovalForAll(address,bool)": "26678",
            "supportsInterface(bytes4)": "531",
            "symbol()": "infinite",
            "tokenURI(uint256)": "infinite",
            "transferFrom(address,address,uint256)": "infinite",
            "transferOwnership(address)": "28443"
        },
        "internal": {
            "_baseURI()": "infinite"
        }
    }
}